{
  "contractName": "Bounties",
  "abi": [
    {
      "constant": true,
      "inputs": [],
      "name": "owner",
      "outputs": [
        {
          "name": "",
          "type": "address"
        }
      ],
      "payable": false,
      "stateMutability": "view",
      "type": "function"
    },
    {
      "constant": true,
      "inputs": [],
      "name": "mToken",
      "outputs": [
        {
          "name": "",
          "type": "address"
        }
      ],
      "payable": false,
      "stateMutability": "view",
      "type": "function"
    },
    {
      "constant": true,
      "inputs": [
        {
          "name": "",
          "type": "uint256"
        }
      ],
      "name": "bounties",
      "outputs": [
        {
          "name": "issuer",
          "type": "address"
        },
        {
          "name": "deadline",
          "type": "uint256"
        },
        {
          "name": "data",
          "type": "string"
        },
        {
          "name": "fulfillmentAmount",
          "type": "uint256"
        },
        {
          "name": "arbiter",
          "type": "address"
        },
        {
          "name": "paysTokens",
          "type": "bool"
        },
        {
          "name": "bountyStage",
          "type": "uint8"
        },
        {
          "name": "balance",
          "type": "uint256"
        }
      ],
      "payable": false,
      "stateMutability": "view",
      "type": "function"
    },
    {
      "inputs": [
        {
          "name": "_tokenAddress",
          "type": "address"
        }
      ],
      "payable": false,
      "stateMutability": "nonpayable",
      "type": "constructor"
    },
    {
      "anonymous": false,
      "inputs": [
        {
          "indexed": false,
          "name": "bountyId",
          "type": "uint256"
        }
      ],
      "name": "BountyIssued",
      "type": "event"
    },
    {
      "anonymous": false,
      "inputs": [
        {
          "indexed": false,
          "name": "bountyId",
          "type": "uint256"
        },
        {
          "indexed": false,
          "name": "issuer",
          "type": "address"
        }
      ],
      "name": "BountyActivated",
      "type": "event"
    },
    {
      "anonymous": false,
      "inputs": [
        {
          "indexed": false,
          "name": "bountyId",
          "type": "uint256"
        },
        {
          "indexed": true,
          "name": "fulfiller",
          "type": "address"
        },
        {
          "indexed": true,
          "name": "_fulfillmentId",
          "type": "uint256"
        }
      ],
      "name": "BountyFulfilled",
      "type": "event"
    },
    {
      "anonymous": false,
      "inputs": [
        {
          "indexed": false,
          "name": "_bountyId",
          "type": "uint256"
        },
        {
          "indexed": false,
          "name": "_fulfillmentId",
          "type": "uint256"
        }
      ],
      "name": "FulfillmentUpdated",
      "type": "event"
    },
    {
      "anonymous": false,
      "inputs": [
        {
          "indexed": false,
          "name": "bountyId",
          "type": "uint256"
        },
        {
          "indexed": true,
          "name": "fulfiller",
          "type": "address"
        },
        {
          "indexed": true,
          "name": "_fulfillmentId",
          "type": "uint256"
        }
      ],
      "name": "FulfillmentAccepted",
      "type": "event"
    },
    {
      "anonymous": false,
      "inputs": [
        {
          "indexed": false,
          "name": "bountyId",
          "type": "uint256"
        },
        {
          "indexed": true,
          "name": "issuer",
          "type": "address"
        }
      ],
      "name": "BountyKilled",
      "type": "event"
    },
    {
      "anonymous": false,
      "inputs": [
        {
          "indexed": false,
          "name": "bountyId",
          "type": "uint256"
        },
        {
          "indexed": true,
          "name": "contributor",
          "type": "address"
        },
        {
          "indexed": false,
          "name": "value",
          "type": "uint256"
        }
      ],
      "name": "ContributionAdded",
      "type": "event"
    },
    {
      "anonymous": false,
      "inputs": [
        {
          "indexed": false,
          "name": "bountyId",
          "type": "uint256"
        },
        {
          "indexed": false,
          "name": "newDeadline",
          "type": "uint256"
        }
      ],
      "name": "DeadlineExtended",
      "type": "event"
    },
    {
      "anonymous": false,
      "inputs": [
        {
          "indexed": false,
          "name": "bountyId",
          "type": "uint256"
        }
      ],
      "name": "BountyChanged",
      "type": "event"
    },
    {
      "anonymous": false,
      "inputs": [
        {
          "indexed": false,
          "name": "_bountyId",
          "type": "uint256"
        },
        {
          "indexed": true,
          "name": "_newIssuer",
          "type": "address"
        }
      ],
      "name": "IssuerTransferred",
      "type": "event"
    },
    {
      "anonymous": false,
      "inputs": [
        {
          "indexed": false,
          "name": "_bountyId",
          "type": "uint256"
        },
        {
          "indexed": false,
          "name": "_newFulfillmentAmount",
          "type": "uint256"
        }
      ],
      "name": "PayoutIncreased",
      "type": "event"
    },
    {
      "constant": false,
      "inputs": [
        {
          "name": "_issuer",
          "type": "address"
        },
        {
          "name": "_deadline",
          "type": "uint256"
        },
        {
          "name": "_data",
          "type": "string"
        },
        {
          "name": "_fulfillmentAmount",
          "type": "uint256"
        },
        {
          "name": "_arbiter",
          "type": "address"
        },
        {
          "name": "_paysTokens",
          "type": "bool"
        },
        {
          "name": "_tokenContract",
          "type": "address"
        }
      ],
      "name": "issueBounty",
      "outputs": [
        {
          "name": "",
          "type": "uint256"
        }
      ],
      "payable": false,
      "stateMutability": "nonpayable",
      "type": "function"
    },
    {
      "constant": false,
      "inputs": [
        {
          "name": "_issuer",
          "type": "address"
        },
        {
          "name": "_deadline",
          "type": "uint256"
        },
        {
          "name": "_data",
          "type": "string"
        },
        {
          "name": "_fulfillmentAmount",
          "type": "uint256"
        },
        {
          "name": "_arbiter",
          "type": "address"
        },
        {
          "name": "_paysTokens",
          "type": "bool"
        },
        {
          "name": "_tokenContract",
          "type": "address"
        },
        {
          "name": "_value",
          "type": "uint256"
        }
      ],
      "name": "issueAndActivateBounty",
      "outputs": [
        {
          "name": "",
          "type": "uint256"
        }
      ],
      "payable": true,
      "stateMutability": "payable",
      "type": "function"
    },
    {
      "constant": false,
      "inputs": [
        {
          "name": "_bountyId",
          "type": "uint256"
        },
        {
          "name": "_value",
          "type": "uint256"
        }
      ],
      "name": "contribute",
      "outputs": [],
      "payable": true,
      "stateMutability": "payable",
      "type": "function"
    },
    {
      "constant": false,
      "inputs": [
        {
          "name": "_bountyId",
          "type": "uint256"
        },
        {
          "name": "_value",
          "type": "uint256"
        }
      ],
      "name": "activateBounty",
      "outputs": [],
      "payable": true,
      "stateMutability": "payable",
      "type": "function"
    },
    {
      "constant": false,
      "inputs": [
        {
          "name": "_bountyId",
          "type": "uint256"
        },
        {
          "name": "_data",
          "type": "string"
        }
      ],
      "name": "fulfillBounty",
      "outputs": [],
      "payable": false,
      "stateMutability": "nonpayable",
      "type": "function"
    },
    {
      "constant": false,
      "inputs": [
        {
          "name": "_bountyId",
          "type": "uint256"
        },
        {
          "name": "_fulfillmentId",
          "type": "uint256"
        },
        {
          "name": "_data",
          "type": "string"
        }
      ],
      "name": "updateFulfillment",
      "outputs": [],
      "payable": false,
      "stateMutability": "nonpayable",
      "type": "function"
    },
    {
      "constant": false,
      "inputs": [
        {
          "name": "_bountyId",
          "type": "uint256"
        },
        {
          "name": "_fulfillmentId",
          "type": "uint256"
        }
      ],
      "name": "acceptFulfillment",
      "outputs": [],
      "payable": false,
      "stateMutability": "nonpayable",
      "type": "function"
    },
    {
      "constant": false,
      "inputs": [
        {
          "name": "_bountyId",
          "type": "uint256"
        }
      ],
      "name": "killBounty",
      "outputs": [],
      "payable": false,
      "stateMutability": "nonpayable",
      "type": "function"
    },
    {
      "constant": false,
      "inputs": [
        {
          "name": "_bountyId",
          "type": "uint256"
        },
        {
          "name": "_newDeadline",
          "type": "uint256"
        }
      ],
      "name": "extendDeadline",
      "outputs": [],
      "payable": false,
      "stateMutability": "nonpayable",
      "type": "function"
    },
    {
      "constant": false,
      "inputs": [
        {
          "name": "_bountyId",
          "type": "uint256"
        },
        {
          "name": "_newIssuer",
          "type": "address"
        }
      ],
      "name": "transferIssuer",
      "outputs": [],
      "payable": false,
      "stateMutability": "nonpayable",
      "type": "function"
    },
    {
      "constant": false,
      "inputs": [
        {
          "name": "_bountyId",
          "type": "uint256"
        },
        {
          "name": "_newDeadline",
          "type": "uint256"
        }
      ],
      "name": "changeBountyDeadline",
      "outputs": [],
      "payable": false,
      "stateMutability": "nonpayable",
      "type": "function"
    },
    {
      "constant": false,
      "inputs": [
        {
          "name": "_bountyId",
          "type": "uint256"
        },
        {
          "name": "_newData",
          "type": "string"
        }
      ],
      "name": "changeBountyData",
      "outputs": [],
      "payable": false,
      "stateMutability": "nonpayable",
      "type": "function"
    },
    {
      "constant": false,
      "inputs": [
        {
          "name": "_bountyId",
          "type": "uint256"
        },
        {
          "name": "_newFulfillmentAmount",
          "type": "uint256"
        }
      ],
      "name": "changeBountyFulfillmentAmount",
      "outputs": [],
      "payable": false,
      "stateMutability": "nonpayable",
      "type": "function"
    },
    {
      "constant": false,
      "inputs": [
        {
          "name": "_bountyId",
          "type": "uint256"
        },
        {
          "name": "_newArbiter",
          "type": "address"
        }
      ],
      "name": "changeBountyArbiter",
      "outputs": [],
      "payable": false,
      "stateMutability": "nonpayable",
      "type": "function"
    },
    {
      "constant": false,
      "inputs": [
        {
          "name": "_bountyId",
          "type": "uint256"
        },
        {
          "name": "_newFulfillmentAmount",
          "type": "uint256"
        },
        {
          "name": "_value",
          "type": "uint256"
        }
      ],
      "name": "increasePayout",
      "outputs": [],
      "payable": true,
      "stateMutability": "payable",
      "type": "function"
    },
    {
      "constant": true,
      "inputs": [
        {
          "name": "_bountyId",
          "type": "uint256"
        },
        {
          "name": "_fulfillmentId",
          "type": "uint256"
        }
      ],
      "name": "getFulfillment",
      "outputs": [
        {
          "name": "",
          "type": "bool"
        },
        {
          "name": "",
          "type": "address"
        },
        {
          "name": "",
          "type": "string"
        }
      ],
      "payable": false,
      "stateMutability": "view",
      "type": "function"
    },
    {
      "constant": true,
      "inputs": [
        {
          "name": "_bountyId",
          "type": "uint256"
        }
      ],
      "name": "getBounty",
      "outputs": [
        {
          "name": "",
          "type": "address"
        },
        {
          "name": "",
          "type": "uint256"
        },
        {
          "name": "",
          "type": "uint256"
        },
        {
          "name": "",
          "type": "bool"
        },
        {
          "name": "",
          "type": "uint256"
        },
        {
          "name": "",
          "type": "uint256"
        }
      ],
      "payable": false,
      "stateMutability": "view",
      "type": "function"
    },
    {
      "constant": true,
      "inputs": [
        {
          "name": "_bountyId",
          "type": "uint256"
        }
      ],
      "name": "getBountyArbiter",
      "outputs": [
        {
          "name": "",
          "type": "address"
        }
      ],
      "payable": false,
      "stateMutability": "view",
      "type": "function"
    },
    {
      "constant": true,
      "inputs": [
        {
          "name": "_bountyId",
          "type": "uint256"
        }
      ],
      "name": "getBountyData",
      "outputs": [
        {
          "name": "",
          "type": "string"
        }
      ],
      "payable": false,
      "stateMutability": "view",
      "type": "function"
    },
    {
      "constant": true,
      "inputs": [
        {
          "name": "_bountyId",
          "type": "uint256"
        }
      ],
      "name": "getBountyToken",
      "outputs": [
        {
          "name": "",
          "type": "address"
        }
      ],
      "payable": false,
      "stateMutability": "view",
      "type": "function"
    },
    {
      "constant": true,
      "inputs": [],
      "name": "getNumBounties",
      "outputs": [
        {
          "name": "",
          "type": "uint256"
        }
      ],
      "payable": false,
      "stateMutability": "view",
      "type": "function"
    },
    {
      "constant": true,
      "inputs": [
        {
          "name": "_bountyId",
          "type": "uint256"
        }
      ],
      "name": "getNumFulfillments",
      "outputs": [
        {
          "name": "",
          "type": "uint256"
        }
      ],
      "payable": false,
      "stateMutability": "view",
      "type": "function"
    }
  ],
  "bytecode": "0x608060405234801561001057600080fd5b50604051602080612d4b833981016040525160008054600160a060020a03191633179055600160a060020a038116151561004957600080fd5b60028054600160a060020a031916600160a060020a0392909216919091179055612cd3806100786000396000f30060806040526004361061012f5763ffffffff60e060020a60003504166316b57509811461013457806319dba3d21461014e5780631e688c14146101825780632d1fdef6146101e05780633278ba2f146101fb57806341ac5dd014610222578063422d4cd614610282578063452ccadb146102935780635d19606e146102ae578063626a413a146102d2578063788acd7e146102e05780637e9e511d1461036857806386647bac146103eb5780638c590917146104035780638da5cb5b14610411578063a60745aa14610426578063b94b0a3a146104b3578063c3b6f9391461056a578063cdad65761461057f578063d6c0ceab146105a3578063d9583497146105be578063dc2f8744146105d9578063ee8c4bbf146106b7578063f3d3402a1461070c578063fbe334f81461076a575b600080fd5b34801561014057600080fd5b5061014c600435610782565b005b34801561015a57600080fd5b506101666004356109b1565b60408051600160a060020a039092168252519081900360200190f35b34801561018e57600080fd5b5060408051602060046024803582810135601f810185900485028601850190965285855261014c9583359536956044949193909101919081908401838280828437509497506109e19650505050505050565b3480156101ec57600080fd5b5061014c600435602435610be5565b34801561020757600080fd5b50610210610cc6565b60408051918252519081900360200190f35b34801561022e57600080fd5b50604080516020600460443581810135601f810184900484028501840190955284845261014c948235946024803595369594606494920191908190840183828082843750949750610ccd9650505050505050565b61014c600435602435604435610e08565b34801561029f57600080fd5b5061014c60043560243561115d565b3480156102ba57600080fd5b5061014c600435600160a060020a036024351661123a565b61014c6004356024356112f9565b3480156102ec57600080fd5b50604080516020600460443581810135601f8101849004840285018401909552848452610210948235600160a060020a031694602480359536959460649492019190819084018382808284375094975050843595505050506020820135600160a060020a03908116926040810135151592506060013516611685565b604080516020600460443581810135601f8101849004840285018401909552848452610210948235600160a060020a0316946024803595369594606494920191908190840183828082843750949750508435955050600160a060020a036020850135811694604081013515159450606081013590911692506080013590506118b8565b3480156103f757600080fd5b50610166600435611c24565b61014c600435602435611c69565b34801561041d57600080fd5b50610166611f83565b34801561043257600080fd5b5061043e600435611f92565b6040805160208082528351818301528351919283929083019185019080838360005b83811015610478578181015183820152602001610460565b50505050905090810190601f1680156104a55780820380516001836020036101000a031916815260200191505b509250505060405180910390f35b3480156104bf57600080fd5b506104ce600435602435612058565b604051808415151515815260200183600160a060020a0316600160a060020a0316815260200180602001828103825283818151815260200191508051906020019080838360005b8381101561052d578181015183820152602001610515565b50505050905090810190601f16801561055a5780820380516001836020036101000a031916815260200191505b5094505050505060405180910390f35b34801561057657600080fd5b506101666121dc565b34801561058b57600080fd5b5061014c600435600160a060020a03602435166121eb565b3480156105af57600080fd5b5061014c6004356024356122e8565b3480156105ca57600080fd5b5061014c6004356024356123d3565b3480156105e557600080fd5b506105f1600435612831565b60408051600160a060020a03808b168252602082018a9052606082018890528616608082015284151560a082015290810160c0820184600281111561063257fe5b60ff168152602001838152602001828103825288818151815260200191508051906020019080838360005b8381101561067557818101518382015260200161065d565b50505050905090810190601f1680156106a25780820380516001836020036101000a031916815260200191505b50995050505050505050505060405180910390f35b3480156106c357600080fd5b506106cf60043561294f565b60408051600160a060020a0390971687526020870195909552858501939093529015156060850152608084015260a0830152519081900360c00190f35b34801561071857600080fd5b5060408051602060046024803582810135601f810185900485028601850190965285855261014c958335953695604494919390910191908190840183828082843750949750612a759650505050505050565b34801561077657600080fd5b50610210600435612b5e565b6001546000908290811061079557600080fd5b826001818154811015156107a557fe5b6000918252602090912060069091020154600160a060020a031633146107ca57600080fd5b6107d5846002612b85565b60018054859081106107e357fe5b9060005260206000209060060201600501549250600060018581548110151561080857fe5b906000526020600020906006020160050181905550600083111561097557600180548590811061083457fe5b906000526020600020906006020160040160149054906101000a900460ff16156109205760008481526005602052604090205460018054600160a060020a039092169163a9059cbb91908790811061088857fe5b600091825260208083206006909202909101546040805160e060020a63ffffffff8716028152600160a060020a039092166004830152602482018990525160448083019491928390030190829087803b1580156108e457600080fd5b505af11580156108f8573d6000803e3d6000fd5b505050506040513d602081101561090e57600080fd5b5051151561091b57600080fd5b610975565b600180548590811061092e57fe5b60009182526020822060069091020154604051600160a060020a039091169185156108fc02918691818181858888f19350505050158015610973573d6000803e3d6000fd5b505b60408051858152905133917f1b5171f0f6cd238c5b76b002b28e5c29dc3864174e7ed7f168b5e6373196d901919081900360200190a250505050565b600154600090829081106109c457600080fd5b5050600090815260056020526040902054600160a060020a031690565b600154829081106109f157600080fd5b60008381526003602052604090205483906001810111610a1057600080fd5b836001806001805484908110610a2257fe5b906000526020600020906006020160040160159054906101000a900460ff166002811115610a4c57fe5b14610a5657600080fd5b85600181815481101515610a6657fe5b90600052602060002090600602016001015442101515610a8557600080fd5b86600181815481101515610a9557fe5b6000918252602090912060069091020154600160a060020a03163314801590610ae857506001805482908110610ac757fe5b6000918252602090912060069091020160040154600160a060020a03163314155b1515610af357600080fd5b60008881526003602090815260408083208151606081018352848152338185019081529281018c81528254600181810180865594885296869020835160029092020180549551600160a060020a03166101000274ffffffffffffffffffffffffffffffffffffffff001992151560ff19909716969096179190911694909417845551805192959194610b8b9392850192910190612bef565b5050506000898152600360209081526040918290205482518c81529251600019909101935033927feb70bc86dda3bbb4f37b25318d4737f2641d3e315df2f59a123c5a061971035792908290030190a35050505050505050565b60015482908110610bf557600080fd5b82600181815481101515610c0557fe5b6000918252602090912060069091020154600160a060020a03163314610c2a57600080fd5b8383600182815481101515610c3b57fe5b90600052602060002090600602016001015481111515610c5a57600080fd5b84600187815481101515610c6a57fe5b9060005260206000209060060201600101819055507f073d5fd87a7e0c2a384727f9aab2e84826370623aba582638b425a417e799a2c8686604051808381526020018281526020019250505060405180910390a1505050505050565b6001545b90565b60015483908110610cdd57600080fd5b600084815260036020526040902054849084908110610cfb57600080fd5b600086815260036020526040902080548791879182908110610d1957fe5b60009182526020909120600290910201546101009004600160a060020a03163314610d4357600080fd5b600088815260036020526040902080548991899182908110610d6157fe5b600091825260209091206002909102015460ff1615610d7f57600080fd5b60008a815260036020526040902080548991908b908110610d9c57fe5b90600052602060002090600202016001019080519060200190610dc0929190612bef565b50604080518b8152602081018b905281517f6e609af2c76c6673122c9a6ee1677adc2e9f20ec9979d056bf6c4f40799b9558929181900390910190a150505050505050505050565b60015483908110610e1857600080fd5b83600181815481101515610e2857fe5b6000918252602090912060069091020154600160a060020a03163314610e4d57600080fd5b848480600183815481101515610e5f57fe5b906000526020600020906006020160030154101515610e7d57600080fd5b86856000600183815481101515610e9057fe5b906000526020600020906006020160040160149054906101000a900460ff1615611088573415610ebf57600080fd5b600083815260056020908152604080832054815160e060020a6370a082310281523060048201529151600160a060020a03909116936370a0823193602480850194919392918390030190829087803b158015610f1a57600080fd5b505af1158015610f2e573d6000803e3d6000fd5b505050506040513d6020811015610f4457600080fd5b505190508115610fed57600083815260056020908152604080832054815160e060020a6323b872dd028152336004820152306024820152604481018790529151600160a060020a03909116936323b872dd93606480850194919392918390030190829087803b158015610fb657600080fd5b505af1158015610fca573d6000803e3d6000fd5b505050506040513d6020811015610fe057600080fd5b50511515610fed57600080fd5b600083815260056020908152604080832054815160e060020a6370a08231028152306004820152915186948694600160a060020a03909316936370a0823193602480830194919391928390030190829087803b15801561104c57600080fd5b505af1158015611060573d6000803e3d6000fd5b505050506040513d602081101561107657600080fd5b5051031461108357600080fd5b611094565b34821461109457600080fd5b8760018b8154811015156110a457fe5b6000918252602090912060056006909202010180549091019055600180548a91908c9081106110cf57fe5b906000526020600020906006020160050154101515156110ee57600080fd5b8860018b8154811015156110fe57fe5b9060005260206000209060060201600301819055507e61c78e3c7ddc2b1bfc8ba5996c63dd51b289e6ee3bd6f0e55089cf698aa6928a8a604051808381526020018281526020019250505060405180910390a150505050505050505050565b6001548290811061116d57600080fd5b8260018181548110151561117d57fe5b6000918252602090912060069091020154600160a060020a031633146111a257600080fd5b8360008060018054849081106111b457fe5b906000526020600020906006020160040160159054906101000a900460ff1660028111156111de57fe5b146111e857600080fd5b846001878154811015156111f857fe5b906000526020600020906006020160030181905550600080516020612c88833981519152866040518082815260200191505060405180910390a1505050505050565b6001548290811061124a57600080fd5b8260018181548110151561125a57fe5b6000918252602090912060069091020154600160a060020a0316331461127f57600080fd5b8260018581548110151561128f57fe5b6000918252602091829020600691909102018054600160a060020a031916600160a060020a03938416179055604080518781529051928616927f76a6676aed9f1a70fb8043b568311724b5e4cec1d68ff8fc9d5ab0a6fa619c17929181900390910190a250505050565b6001548290811061130957600080fd5b8260018181548110151561131957fe5b9060005260206000209060060201600101544210151561133857600080fd5b8360018181548110151561134857fe5b6000918252602090912060069091020154600160a060020a0316331461136d57600080fd5b8484600060018381548110151561138057fe5b906000526020600020906006020160040160149054906101000a900460ff16156115785734156113af57600080fd5b600083815260056020908152604080832054815160e060020a6370a082310281523060048201529151600160a060020a03909116936370a0823193602480850194919392918390030190829087803b15801561140a57600080fd5b505af115801561141e573d6000803e3d6000fd5b505050506040513d602081101561143457600080fd5b5051905081156114dd57600083815260056020908152604080832054815160e060020a6323b872dd028152336004820152306024820152604481018790529151600160a060020a03909116936323b872dd93606480850194919392918390030190829087803b1580156114a657600080fd5b505af11580156114ba573d6000803e3d6000fd5b505050506040513d60208110156114d057600080fd5b505115156114dd57600080fd5b600083815260056020908152604080832054815160e060020a6370a08231028152306004820152915186948694600160a060020a03909316936370a0823193602480830194919391928390030190829087803b15801561153c57600080fd5b505af1158015611550573d6000803e3d6000fd5b505050506040513d602081101561156657600080fd5b5051031461157357600080fd5b611584565b34821461158457600080fd5b8660018981548110151561159457fe5b600091825260209091206005600690920201018054909101905560018054899081106115bc57fe5b9060005260206000209060060201600301546001898154811015156115dd57fe5b906000526020600020906006020160050154101515156115fc57600080fd5b611607886001612b85565b6040805189815260208101899052815133927f75aecd8d57cb4b1b263271bddb4961b993924dd466e6003c254832572d8a57e1928290030190a26040805189815233602082015281517fe42c1b76efa2e9aa5b354a151174590827beb1ef94bde26787491bf4e7d68a19929181900390910190a15050505050505050565b60008642811161169457600080fd5b858015156116a157600080fd5b60018054908101116116b257600080fd5b6001610100604051908101604052808c600160a060020a031681526020018b81526020018a815260200189815260200188600160a060020a0316815260200187151581526020016000600281111561170657fe5b815260006020918201819052835460018082018087559583529183902084516006909202018054600160a060020a031916600160a060020a03909216919091178155838301519181019190915560408301518051919261176e92600285019290910190612bef565b5060608201516003820155608082015160048201805460a08501511515740100000000000000000000000000000000000000000274ff000000000000000000000000000000000000000019600160a060020a03909416600160a060020a031990921691909117929092169190911780825560c0840151919075ff0000000000000000000000000000000000000000001916750100000000000000000000000000000000000000000083600281111561182257fe5b021790555060e082015181600501555050508415611869576001546000190160009081526005602052604090208054600160a060020a031916600160a060020a0386161790555b600154604080516000199092018252517fe04ac09e4a49338f40cf62a51ba721823ed22f57bc4d53c6f8684bdb1be8fd109181900360200190a150506001546000190198975050505050505050565b6000874281116118c757600080fd5b868015156118d457600080fd5b60018054908101116118e557600080fd5b878410156118f257600080fd5b85156119c457341561190357600080fd5b6001805460009081526005602090815260408083208054600160a060020a031916600160a060020a038b8116919091179091559354835280832054815160e060020a6323b872dd028152336004820152306024820152604481018a905291519416936323b872dd93606480840194938390030190829087803b15801561198857600080fd5b505af115801561199c573d6000803e3d6000fd5b505050506040513d60208110156119b257600080fd5b505115156119bf57600080fd5b6119d0565b3484146119d057600080fd5b6001610100604051908101604052808d600160a060020a031681526020018c81526020018b81526020018a815260200189600160a060020a03168152602001881515815260200160016002811115611a2457fe5b815260209081018790528254600180820180865560009586529483902084516006909302018054600160a060020a031916600160a060020a039093169290921782558383015190820155604083015180519192611a8992600285019290910190612bef565b5060608201516003820155608082015160048201805460a08501511515740100000000000000000000000000000000000000000274ff000000000000000000000000000000000000000019600160a060020a03909416600160a060020a031990921691909117929092169190911780825560c0840151919075ff00000000000000000000000000000000000000000019167501000000000000000000000000000000000000000000836002811115611b3d57fe5b021790555060e0919091015160059091015550600154604080516000199092018252517fe04ac09e4a49338f40cf62a51ba721823ed22f57bc4d53c6f8684bdb1be8fd109181900360200190a160015460408051600019909201825260208201869052805133927f75aecd8d57cb4b1b263271bddb4961b993924dd466e6003c254832572d8a57e192908290030190a260015460408051600019909201825233602083015280517fe42c1b76efa2e9aa5b354a151174590827beb1ef94bde26787491bf4e7d68a199281900390910190a15050600154600019019998505050505050505050565b60015460009082908110611c3757600080fd5b6001805484908110611c4557fe5b6000918252602090912060069091020160040154600160a060020a03169392505050565b60015482908110611c7957600080fd5b82600181815481101515611c8957fe5b90600052602060002090600602016001015442101515611ca857600080fd5b8360026001805483908110611cb957fe5b906000526020600020906006020160040160159054906101000a900460ff166002811115611ce357fe5b1415611cee57600080fd5b83801515611cfb57600080fd5b85856000600183815481101515611d0e57fe5b906000526020600020906006020160040160149054906101000a900460ff1615611f06573415611d3d57600080fd5b600083815260056020908152604080832054815160e060020a6370a082310281523060048201529151600160a060020a03909116936370a0823193602480850194919392918390030190829087803b158015611d9857600080fd5b505af1158015611dac573d6000803e3d6000fd5b505050506040513d6020811015611dc257600080fd5b505190508115611e6b57600083815260056020908152604080832054815160e060020a6323b872dd028152336004820152306024820152604481018790529151600160a060020a03909116936323b872dd93606480850194919392918390030190829087803b158015611e3457600080fd5b505af1158015611e48573d6000803e3d6000fd5b505050506040513d6020811015611e5e57600080fd5b50511515611e6b57600080fd5b600083815260056020908152604080832054815160e060020a6370a08231028152306004820152915186948694600160a060020a03909316936370a0823193602480830194919391928390030190829087803b158015611eca57600080fd5b505af1158015611ede573d6000803e3d6000fd5b505050506040513d6020811015611ef457600080fd5b50510314611f0157600080fd5b611f12565b348214611f1257600080fd5b8760018a815481101515611f2257fe5b60009182526020918290206005600690920201018054909201909155604080518b81529182018a9052805133927f75aecd8d57cb4b1b263271bddb4961b993924dd466e6003c254832572d8a57e192908290030190a2505050505050505050565b600054600160a060020a031681565b60015460609082908110611fa557600080fd5b6001805484908110611fb357fe5b600091825260209182902060026006909202018101805460408051601f60001961010060018616150201909316949094049182018590048502840185019052808352919290919083018282801561204b5780601f106120205761010080835404028352916020019161204b565b820191906000526020600020905b81548152906001019060200180831161202e57829003601f168201915b5050505050915050919050565b60015460009081906060908590811061207057600080fd5b60008681526003602052604090205486908690811061208e57600080fd5b60008881526003602052604090208054889081106120a857fe5b600091825260208083206002909202909101548a835260039091526040909120805460ff90921691899081106120da57fe5b906000526020600020906002020160000160019054906101000a9004600160a060020a0316600360008b81526020019081526020016000208981548110151561211f57fe5b9060005260206000209060020201600101808054600181600116156101000203166002900480601f0160208091040260200160405190810160405280929190818152602001828054600181600116156101000203166002900480156121c55780601f1061219a576101008083540402835291602001916121c5565b820191906000526020600020905b8154815290600101906020018083116121a857829003601f168201915b505050505090509550955095505050509250925092565b600254600160a060020a031681565b600154829081106121fb57600080fd5b8260018181548110151561220b57fe5b6000918252602090912060069091020154600160a060020a0316331461223057600080fd5b83600080600180548490811061224257fe5b906000526020600020906006020160040160159054906101000a900460ff16600281111561226c57fe5b1461227657600080fd5b8460018781548110151561228657fe5b906000526020600020906006020160040160006101000a815481600160a060020a030219169083600160a060020a03160217905550600080516020612c88833981519152866040518082815260200191505060405180910390a1505050505050565b600154829081106122f857600080fd5b8260018181548110151561230857fe5b6000918252602090912060069091020154600160a060020a0316331461232d57600080fd5b8242811161233a57600080fd5b84600080600180548490811061234c57fe5b906000526020600020906006020160040160159054906101000a900460ff16600281111561237657fe5b1461238057600080fd5b8560018881548110151561239057fe5b906000526020600020906006020160010181905550600080516020612c88833981519152876040518082815260200191505060405180910390a150505050505050565b600154829081106123e357600080fd5b60008381526003602052604090205483908390811061240157600080fd5b8460018181548110151561241157fe5b6000918252602090912060069091020154600160a060020a03163314806124995750600180548290811061244157fe5b6000918252602090912060069091020160040154600160a060020a031633148015612499575060018054600091908390811061247957fe5b6000918252602090912060046006909202010154600160a060020a031614155b15156124a457600080fd5b8560018060018054849081106124b657fe5b906000526020600020906006020160040160159054906101000a900460ff1660028111156124e057fe5b146124ea57600080fd5b60008881526003602052604090208054899189918290811061250857fe5b600091825260209091206002909102015460ff161561252657600080fd5b8960018181548110151561253657fe5b90600052602060002090600602016003015460018281548110151561255757fe5b9060005260206000209060060201600501541015151561257657600080fd5b60008b81526003602052604090208054600191908c90811061259457fe5b60009182526020808320600292909202909101805460ff1916931515939093179092558c81526004909152604090208054600190810190915580548c9081106125d957fe5b90600052602060002090600602016003015460018c8154811015156125fa57fe5b600091825260209091206005600690920201018054919091039055600180548c90811061262357fe5b906000526020600020906006020160040160149054906101000a900460ff16156127545760008b81526005602090815260408083205460039092529091208054600160a060020a039092169163a9059cbb91908d90811061268057fe5b906000526020600020906002020160000160019054906101000a9004600160a060020a031660018e8154811015156126b457fe5b9060005260206000209060060201600301546040518363ffffffff1660e060020a0281526004018083600160a060020a0316600160a060020a0316815260200182815260200192505050602060405180830381600087803b15801561271857600080fd5b505af115801561272c573d6000803e3d6000fd5b505050506040513d602081101561274257600080fd5b5051151561274f57600080fd5b6127ed565b60008b815260036020526040902080548b90811061276e57fe5b906000526020600020906002020160000160019054906101000a9004600160a060020a0316600160a060020a03166108fc60018d8154811015156127ae57fe5b9060005260206000209060060201600301549081150290604051600060405180830381858888f193505050501580156127eb573d6000803e3d6000fd5b505b604080518c815290518b9133917f7b9dbf959e54bb2ff6e9d505ef00d6b7fb3ce97880816181aecca973c1da31e69181900360200190a35050505050505050505050565b600180548290811061283f57fe5b6000918252602091829020600691909102018054600180830154600280850180546040805161010096831615969096026000190190911692909204601f8101889004880285018801909252818452600160a060020a03909416965090949192918301828280156128f05780601f106128c5576101008083540402835291602001916128f0565b820191906000526020600020905b8154815290600101906020018083116128d357829003601f168201915b505050506003830154600484015460059094015492939092600160a060020a038216925060ff74010000000000000000000000000000000000000000830481169275010000000000000000000000000000000000000000009004169088565b600080600080600080866001805490508110151561296c57600080fd5b600180548990811061297a57fe5b600091825260209091206006909102015460018054600160a060020a03909216918a9081106129a557fe5b90600052602060002090600602016001015460018a8154811015156129c657fe5b90600052602060002090600602016003015460018b8154811015156129e757fe5b906000526020600020906006020160040160149054906101000a900460ff1660018c815481101515612a1557fe5b906000526020600020906006020160040160159054906101000a900460ff166002811115612a3f57fe5b600180548e908110612a4d57fe5b9060005260206000209060060201600501549650965096509650965096505091939550919395565b60015482908110612a8557600080fd5b82600181815481101515612a9557fe5b6000918252602090912060069091020154600160a060020a03163314612aba57600080fd5b836000806001805484908110612acc57fe5b906000526020600020906006020160040160159054906101000a900460ff166002811115612af657fe5b14612b0057600080fd5b84600187815481101515612b1057fe5b90600052602060002090600602016002019080519060200190612b34929190612bef565b50604080518781529051600080516020612c888339815191529181900360200190a1505050505050565b60015460009082908110612b7157600080fd5b505060009081526003602052604090205490565b80600183815481101515612b9557fe5b60009182526020909120600460069092020101805475ff00000000000000000000000000000000000000000019167501000000000000000000000000000000000000000000836002811115612be657fe5b02179055505050565b828054600181600116156101000203166002900490600052602060002090601f016020900481019282601f10612c3057805160ff1916838001178555612c5d565b82800160010185558215612c5d579182015b82811115612c5d578251825591602001919060010190612c42565b50612c69929150612c6d565b5090565b610cca91905b80821115612c695760008155600101612c735600fb8e4f1ace1b37ebd0423cd75b120660780cc08a9414e04fe6b50f96a9482ddea165627a7a72305820f79066488551efdd23ecf3a6c11dc06d658a558c5b35b6bd9299a71384a0e9130029",
  "source": "pragma solidity ^0.4.24;\n\nimport \"./Token.sol\";\n\n/// @title Bounties\n/// @dev Used to pay out individuals or groups for task fulfillment through\n/// stepwise work submission, acceptance, and payment\n/// @author Mark Beylin <mark.beylin@consensys.net>, Gonalo S <goncalo.sa@consensys.net>\ncontract Bounties {\n\n  /*\n   * Events\n   */\n  event BountyIssued(uint bountyId);\n  event BountyActivated(uint bountyId, address issuer);\n  event BountyFulfilled(uint bountyId, address indexed fulfiller, uint256 indexed _fulfillmentId);\n  event FulfillmentUpdated(uint _bountyId, uint _fulfillmentId);\n  event FulfillmentAccepted(uint bountyId, address indexed fulfiller, uint256 indexed _fulfillmentId);\n  event BountyKilled(uint bountyId, address indexed issuer);\n  event ContributionAdded(uint bountyId, address indexed contributor, uint256 value);\n  event DeadlineExtended(uint bountyId, uint newDeadline);\n  event BountyChanged(uint bountyId);\n  event IssuerTransferred(uint _bountyId, address indexed _newIssuer);\n  event PayoutIncreased(uint _bountyId, uint _newFulfillmentAmount);\n\n\n  /*\n   * Storage\n   */\n\n  address public owner;\n\n  Bounty[] public bounties;\n\n  Token  public  mToken;\n\n  mapping(uint=>Fulfillment[]) fulfillments;\n  mapping(uint=>uint) numAccepted;\n  mapping(uint=>Token) tokenContracts;\n\n  /*\n   * Enums\n   */\n\n  enum BountyStages {\n      Draft,\n      Active,\n      Dead\n  }\n\n  /*\n   * Structs\n   */\n\n  struct Bounty {\n      address issuer;\n      uint deadline;\n      string data;\n      uint fulfillmentAmount;\n      address arbiter;\n      bool paysTokens;\n      BountyStages bountyStage;\n      uint balance;\n  }\n\n  struct Fulfillment {\n      bool accepted;\n      address fulfiller;\n      string data;\n  }\n\n  /*\n   * Modifiers\n   */\n\n  modifier validateNotTooManyBounties(){\n    require((bounties.length + 1) > bounties.length);\n    _;\n  }\n\n  modifier validateNotTooManyFulfillments(uint _bountyId){\n    require((fulfillments[_bountyId].length + 1) > fulfillments[_bountyId].length);\n    _;\n  }\n\n  modifier validateBountyArrayIndex(uint _bountyId){\n    require(_bountyId < bounties.length);\n    _;\n  }\n\n  modifier onlyIssuer(uint _bountyId) {\n      require(msg.sender == bounties[_bountyId].issuer);\n      _;\n  }\n\n  modifier onlyFulfiller(uint _bountyId, uint _fulfillmentId) {\n      require(msg.sender == fulfillments[_bountyId][_fulfillmentId].fulfiller);\n      _;\n  }\n\n  modifier amountIsNotZero(uint _amount) {\n      require(_amount != 0);\n      _;\n  }\n\n  modifier transferredAmountEqualsValue(uint _bountyId, uint _amount) {\n      if (bounties[_bountyId].paysTokens){\n        require(msg.value == 0);\n        uint oldBalance = tokenContracts[_bountyId].balanceOf(this);\n        if (_amount != 0){\n          require(tokenContracts[_bountyId].transferFrom(msg.sender, this, _amount));\n        }\n        require((tokenContracts[_bountyId].balanceOf(this) - oldBalance) == _amount);\n\n      } else {\n        require((_amount * 1 wei) == msg.value);\n      }\n      _;\n  }\n\n  modifier isBeforeDeadline(uint _bountyId) {\n      require(now < bounties[_bountyId].deadline);\n      _;\n  }\n\n  modifier validateDeadline(uint _newDeadline) {\n      require(_newDeadline > now);\n      _;\n  }\n\n  modifier isAtStage(uint _bountyId, BountyStages _desiredStage) {\n      require(bounties[_bountyId].bountyStage == _desiredStage);\n      _;\n  }\n\n  modifier validateFulfillmentArrayIndex(uint _bountyId, uint _index) {\n      require(_index < fulfillments[_bountyId].length);\n      _;\n  }\n\n  modifier notYetAccepted(uint _bountyId, uint _fulfillmentId){\n      require(fulfillments[_bountyId][_fulfillmentId].accepted == false);\n      _;\n  }\n\n  /*\n   * Public functions\n   */\n\n\n  /// @dev Bounties(): instantiates\n  /// @param _tokenAddress the token contract\n  function Bounties(address _tokenAddress)\n      public\n  {\n      owner = msg.sender;\n      // address must be valid\n      require(_tokenAddress != address(0));\n      // instantiate deployed Ocean token contract\n      mToken = Token(_tokenAddress);\n  }\n\n  /// @dev issueBounty(): instantiates a new draft bounty\n  /// @param _issuer the address of the intended issuer of the bounty\n  /// @param _deadline the unix timestamp after which fulfillments will no longer be accepted\n  /// @param _data the requirements of the bounty\n  /// @param _fulfillmentAmount the amount of wei to be paid out for each successful fulfillment\n  /// @param _arbiter the address of the arbiter who can mediate claims\n  /// @param _paysTokens whether the bounty pays in tokens or in ETH\n  /// @param _tokenContract the address of the contract if _paysTokens is true\n  function issueBounty(\n      address _issuer,\n      uint _deadline,\n      string _data,\n      uint256 _fulfillmentAmount,\n      address _arbiter,\n      bool _paysTokens,\n      address _tokenContract\n  )\n      public\n      validateDeadline(_deadline)\n      amountIsNotZero(_fulfillmentAmount)\n      validateNotTooManyBounties\n      returns (uint)\n  {\n      bounties.push(Bounty(_issuer, _deadline, _data, _fulfillmentAmount, _arbiter, _paysTokens, BountyStages.Draft, 0));\n      if (_paysTokens){\n        tokenContracts[bounties.length - 1] = Token(_tokenContract);\n      }\n      emit BountyIssued(bounties.length - 1);\n      return (bounties.length - 1);\n  }\n\n  /// @dev issueAndActivateBounty(): instantiates a new draft bounty\n  /// @param _issuer the address of the intended issuer of the bounty\n  /// @param _deadline the unix timestamp after which fulfillments will no longer be accepted\n  /// @param _data the requirements of the bounty\n  /// @param _fulfillmentAmount the amount of wei to be paid out for each successful fulfillment\n  /// @param _arbiter the address of the arbiter who can mediate claims\n  /// @param _paysTokens whether the bounty pays in tokens or in ETH\n  /// @param _tokenContract the address of the contract if _paysTokens is true\n  /// @param _value the total number of tokens being deposited upon activation\n  function issueAndActivateBounty(\n      address _issuer,\n      uint _deadline,\n      string _data,\n      uint256 _fulfillmentAmount,\n      address _arbiter,\n      bool _paysTokens,\n      address _tokenContract,\n      uint256 _value\n  )\n      public\n      payable\n      validateDeadline(_deadline)\n      amountIsNotZero(_fulfillmentAmount)\n      validateNotTooManyBounties\n      returns (uint)\n  {\n      require (_value >= _fulfillmentAmount);\n      if (_paysTokens){\n        require(msg.value == 0);\n        tokenContracts[bounties.length] = Token(_tokenContract);\n        require(tokenContracts[bounties.length].transferFrom(msg.sender, this, _value));\n      } else {\n        require((_value * 1 wei) == msg.value);\n      }\n      bounties.push(Bounty(_issuer,\n                            _deadline,\n                            _data,\n                            _fulfillmentAmount,\n                            _arbiter,\n                            _paysTokens,\n                            BountyStages.Active,\n                            _value));\n      emit BountyIssued(bounties.length - 1);\n      emit ContributionAdded(bounties.length - 1, msg.sender, _value);\n      emit BountyActivated(bounties.length - 1, msg.sender);\n      return (bounties.length - 1);\n  }\n\n  modifier isNotDead(uint _bountyId) {\n      require(bounties[_bountyId].bountyStage != BountyStages.Dead);\n      _;\n  }\n\n  /// @dev contribute(): a function allowing anyone to contribute tokens to a\n  /// bounty, as long as it is still before its deadline. Shouldn't keep\n  /// them by accident (hence 'value').\n  /// @param _bountyId the index of the bounty\n  /// @param _value the amount being contributed in ether to prevent accidental deposits\n  /// @notice Please note you funds will be at the mercy of the issuer\n  ///  and can be drained at any moment. Be careful!\n  function contribute (uint _bountyId, uint _value)\n      payable\n      public\n      validateBountyArrayIndex(_bountyId)\n      isBeforeDeadline(_bountyId)\n      isNotDead(_bountyId)\n      amountIsNotZero(_value)\n      transferredAmountEqualsValue(_bountyId, _value)\n  {\n      bounties[_bountyId].balance += _value;\n\n      emit ContributionAdded(_bountyId, msg.sender, _value);\n  }\n\n  /// @notice Send funds to activate the bug bounty\n  /// @dev activateBounty(): activate a bounty so it may pay out\n  /// @param _bountyId the index of the bounty\n  /// @param _value the amount being contributed in ether to prevent\n  /// accidental deposits\n  function activateBounty(uint _bountyId, uint _value)\n      payable\n      public\n      validateBountyArrayIndex(_bountyId)\n      isBeforeDeadline(_bountyId)\n      onlyIssuer(_bountyId)\n      transferredAmountEqualsValue(_bountyId, _value)\n  {\n      bounties[_bountyId].balance += _value;\n      require (bounties[_bountyId].balance >= bounties[_bountyId].fulfillmentAmount);\n      transitionToState(_bountyId, BountyStages.Active);\n\n      emit ContributionAdded(_bountyId, msg.sender, _value);\n      emit BountyActivated(_bountyId, msg.sender);\n  }\n\n  modifier notIssuerOrArbiter(uint _bountyId) {\n      require(msg.sender != bounties[_bountyId].issuer && msg.sender != bounties[_bountyId].arbiter);\n      _;\n  }\n\n  /// @dev fulfillBounty(): submit a fulfillment for the given bounty\n  /// @param _bountyId the index of the bounty\n  /// @param _data the data artifacts representing the fulfillment of the bounty\n  function fulfillBounty(uint _bountyId, string _data)\n      public\n      validateBountyArrayIndex(_bountyId)\n      validateNotTooManyFulfillments(_bountyId)\n      isAtStage(_bountyId, BountyStages.Active)\n      isBeforeDeadline(_bountyId)\n      notIssuerOrArbiter(_bountyId)\n  {\n      fulfillments[_bountyId].push(Fulfillment(false, msg.sender, _data));\n\n      emit BountyFulfilled(_bountyId, msg.sender, (fulfillments[_bountyId].length - 1));\n  }\n\n  /// @dev updateFulfillment(): Submit updated data for a given fulfillment\n  /// @param _bountyId the index of the bounty\n  /// @param _fulfillmentId the index of the fulfillment\n  /// @param _data the new data being submitted\n  function updateFulfillment(uint _bountyId, uint _fulfillmentId, string _data)\n      public\n      validateBountyArrayIndex(_bountyId)\n      validateFulfillmentArrayIndex(_bountyId, _fulfillmentId)\n      onlyFulfiller(_bountyId, _fulfillmentId)\n      notYetAccepted(_bountyId, _fulfillmentId)\n  {\n      fulfillments[_bountyId][_fulfillmentId].data = _data;\n      emit FulfillmentUpdated(_bountyId, _fulfillmentId);\n  }\n\n  modifier onlyIssuerOrArbiter(uint _bountyId) {\n      require(msg.sender == bounties[_bountyId].issuer ||\n         (msg.sender == bounties[_bountyId].arbiter && bounties[_bountyId].arbiter != address(0)));\n      _;\n  }\n\n  modifier fulfillmentNotYetAccepted(uint _bountyId, uint _fulfillmentId) {\n      require(fulfillments[_bountyId][_fulfillmentId].accepted == false);\n      _;\n  }\n\n  modifier enoughFundsToPay(uint _bountyId) {\n      require(bounties[_bountyId].balance >= bounties[_bountyId].fulfillmentAmount);\n      _;\n  }\n\n  /// @dev acceptFulfillment(): accept a given fulfillment\n  /// @param _bountyId the index of the bounty\n  /// @param _fulfillmentId the index of the fulfillment being accepted\n  function acceptFulfillment(uint _bountyId, uint _fulfillmentId)\n      public\n      validateBountyArrayIndex(_bountyId)\n      validateFulfillmentArrayIndex(_bountyId, _fulfillmentId)\n      onlyIssuerOrArbiter(_bountyId)\n      isAtStage(_bountyId, BountyStages.Active)\n      fulfillmentNotYetAccepted(_bountyId, _fulfillmentId)\n      enoughFundsToPay(_bountyId)\n  {\n      fulfillments[_bountyId][_fulfillmentId].accepted = true;\n      numAccepted[_bountyId]++;\n      bounties[_bountyId].balance -= bounties[_bountyId].fulfillmentAmount;\n      if (bounties[_bountyId].paysTokens){\n        require(tokenContracts[_bountyId].transfer(fulfillments[_bountyId][_fulfillmentId].fulfiller, bounties[_bountyId].fulfillmentAmount));\n      } else {\n        fulfillments[_bountyId][_fulfillmentId].fulfiller.transfer(bounties[_bountyId].fulfillmentAmount);\n      }\n      emit FulfillmentAccepted(_bountyId, msg.sender, _fulfillmentId);\n  }\n\n  /// @dev killBounty(): drains the contract of it's remaining\n  /// funds, and moves the bounty into stage 3 (dead) since it was\n  /// either killed in draft stage, or never accepted any fulfillments\n  /// @param _bountyId the index of the bounty\n  function killBounty(uint _bountyId)\n      public\n      validateBountyArrayIndex(_bountyId)\n      onlyIssuer(_bountyId)\n  {\n      transitionToState(_bountyId, BountyStages.Dead);\n      uint oldBalance = bounties[_bountyId].balance;\n      bounties[_bountyId].balance = 0;\n      if (oldBalance > 0){\n        if (bounties[_bountyId].paysTokens){\n          require(tokenContracts[_bountyId].transfer(bounties[_bountyId].issuer, oldBalance));\n        } else {\n          bounties[_bountyId].issuer.transfer(oldBalance);\n        }\n      }\n      emit BountyKilled(_bountyId, msg.sender);\n  }\n\n  modifier newDeadlineIsValid(uint _bountyId, uint _newDeadline) {\n      require(_newDeadline > bounties[_bountyId].deadline);\n      _;\n  }\n\n  /// @dev extendDeadline(): allows the issuer to add more time to the\n  /// bounty, allowing it to continue accepting fulfillments\n  /// @param _bountyId the index of the bounty\n  /// @param _newDeadline the new deadline in timestamp format\n  function extendDeadline(uint _bountyId, uint _newDeadline)\n      public\n      validateBountyArrayIndex(_bountyId)\n      onlyIssuer(_bountyId)\n      newDeadlineIsValid(_bountyId, _newDeadline)\n  {\n      bounties[_bountyId].deadline = _newDeadline;\n\n      emit DeadlineExtended(_bountyId, _newDeadline);\n  }\n\n  /// @dev transferIssuer(): allows the issuer to transfer ownership of the\n  /// bounty to some new address\n  /// @param _bountyId the index of the bounty\n  /// @param _newIssuer the address of the new issuer\n  function transferIssuer(uint _bountyId, address _newIssuer)\n      public\n      validateBountyArrayIndex(_bountyId)\n      onlyIssuer(_bountyId)\n  {\n      bounties[_bountyId].issuer = _newIssuer;\n      emit IssuerTransferred(_bountyId, _newIssuer);\n  }\n\n\n  /// @dev changeBountyDeadline(): allows the issuer to change a bounty's deadline\n  /// @param _bountyId the index of the bounty\n  /// @param _newDeadline the new deadline for the bounty\n  function changeBountyDeadline(uint _bountyId, uint _newDeadline)\n      public\n      validateBountyArrayIndex(_bountyId)\n      onlyIssuer(_bountyId)\n      validateDeadline(_newDeadline)\n      isAtStage(_bountyId, BountyStages.Draft)\n  {\n      bounties[_bountyId].deadline = _newDeadline;\n      emit BountyChanged(_bountyId);\n  }\n\n  /// @dev changeData(): allows the issuer to change a bounty's data\n  /// @param _bountyId the index of the bounty\n  /// @param _newData the new requirements of the bounty\n  function changeBountyData(uint _bountyId, string _newData)\n      public\n      validateBountyArrayIndex(_bountyId)\n      onlyIssuer(_bountyId)\n      isAtStage(_bountyId, BountyStages.Draft)\n  {\n      bounties[_bountyId].data = _newData;\n      emit BountyChanged(_bountyId);\n  }\n\n  /// @dev changeBountyfulfillmentAmount(): allows the issuer to change a bounty's fulfillment amount\n  /// @param _bountyId the index of the bounty\n  /// @param _newFulfillmentAmount the new fulfillment amount\n  function changeBountyFulfillmentAmount(uint _bountyId, uint _newFulfillmentAmount)\n      public\n      validateBountyArrayIndex(_bountyId)\n      onlyIssuer(_bountyId)\n      isAtStage(_bountyId, BountyStages.Draft)\n  {\n      bounties[_bountyId].fulfillmentAmount = _newFulfillmentAmount;\n      emit BountyChanged(_bountyId);\n  }\n\n  /// @dev changeBountyArbiter(): allows the issuer to change a bounty's arbiter\n  /// @param _bountyId the index of the bounty\n  /// @param _newArbiter the new address of the arbiter\n  function changeBountyArbiter(uint _bountyId, address _newArbiter)\n      public\n      validateBountyArrayIndex(_bountyId)\n      onlyIssuer(_bountyId)\n      isAtStage(_bountyId, BountyStages.Draft)\n  {\n      bounties[_bountyId].arbiter = _newArbiter;\n      emit BountyChanged(_bountyId);\n  }\n\n  modifier newFulfillmentAmountIsIncrease(uint _bountyId, uint _newFulfillmentAmount) {\n      require(bounties[_bountyId].fulfillmentAmount < _newFulfillmentAmount);\n      _;\n  }\n\n  /// @dev increasePayout(): allows the issuer to increase a given fulfillment\n  /// amount in the active stage\n  /// @param _bountyId the index of the bounty\n  /// @param _newFulfillmentAmount the new fulfillment amount\n  /// @param _value the value of the additional deposit being added\n  function increasePayout(uint _bountyId, uint _newFulfillmentAmount, uint _value)\n      public\n      payable\n      validateBountyArrayIndex(_bountyId)\n      onlyIssuer(_bountyId)\n      newFulfillmentAmountIsIncrease(_bountyId, _newFulfillmentAmount)\n      transferredAmountEqualsValue(_bountyId, _value)\n  {\n      bounties[_bountyId].balance += _value;\n      require(bounties[_bountyId].balance >= _newFulfillmentAmount);\n      bounties[_bountyId].fulfillmentAmount = _newFulfillmentAmount;\n      emit PayoutIncreased(_bountyId, _newFulfillmentAmount);\n  }\n\n  /// @dev getFulfillment(): Returns the fulfillment at a given index\n  /// @param _bountyId the index of the bounty\n  /// @param _fulfillmentId the index of the fulfillment to return\n  /// @return Returns a tuple for the fulfillment\n  function getFulfillment(uint _bountyId, uint _fulfillmentId)\n      public\n      constant\n      validateBountyArrayIndex(_bountyId)\n      validateFulfillmentArrayIndex(_bountyId, _fulfillmentId)\n      returns (bool, address, string)\n  {\n      return (fulfillments[_bountyId][_fulfillmentId].accepted,\n              fulfillments[_bountyId][_fulfillmentId].fulfiller,\n              fulfillments[_bountyId][_fulfillmentId].data);\n  }\n\n  /// @dev getBounty(): Returns the details of the bounty\n  /// @param _bountyId the index of the bounty\n  /// @return Returns a tuple for the bounty\n  function getBounty(uint _bountyId)\n      public\n      constant\n      validateBountyArrayIndex(_bountyId)\n      returns (address, uint, uint, bool, uint, uint)\n  {\n      return (bounties[_bountyId].issuer,\n              bounties[_bountyId].deadline,\n              bounties[_bountyId].fulfillmentAmount,\n              bounties[_bountyId].paysTokens,\n              uint(bounties[_bountyId].bountyStage),\n              bounties[_bountyId].balance);\n  }\n\n  /// @dev getBountyArbiter(): Returns the arbiter of the bounty\n  /// @param _bountyId the index of the bounty\n  /// @return Returns an address for the arbiter of the bounty\n  function getBountyArbiter(uint _bountyId)\n      public\n      constant\n      validateBountyArrayIndex(_bountyId)\n      returns (address)\n  {\n      return (bounties[_bountyId].arbiter);\n  }\n\n  /// @dev getBountyData(): Returns the data of the bounty\n  /// @param _bountyId the index of the bounty\n  /// @return Returns a string for the bounty data\n  function getBountyData(uint _bountyId)\n      public\n      constant\n      validateBountyArrayIndex(_bountyId)\n      returns (string)\n  {\n      return (bounties[_bountyId].data);\n  }\n\n  /// @dev getBountyToken(): Returns the token contract of the bounty\n  /// @param _bountyId the index of the bounty\n  /// @return Returns an address for the token that the bounty uses\n  function getBountyToken(uint _bountyId)\n      public\n      constant\n      validateBountyArrayIndex(_bountyId)\n      returns (address)\n  {\n      return (tokenContracts[_bountyId]);\n  }\n\n  /// @dev getNumBounties() returns the number of bounties in the registry\n  /// @return Returns the number of bounties\n  function getNumBounties()\n      public\n      constant\n      returns (uint)\n  {\n      return bounties.length;\n  }\n\n  /// @dev getNumFulfillments() returns the number of fulfillments for a given milestone\n  /// @param _bountyId the index of the bounty\n  /// @return Returns the number of fulfillments\n  function getNumFulfillments(uint _bountyId)\n      public\n      constant\n      validateBountyArrayIndex(_bountyId)\n      returns (uint)\n  {\n      return fulfillments[_bountyId].length;\n  }\n\n  /*\n   * Internal functions\n   */\n\n  /// @dev transitionToState(): transitions the contract to the\n  /// state passed in the parameter `_newStage` given the\n  /// conditions stated in the body of the function\n  /// @param _bountyId the index of the bounty\n  /// @param _newStage the new stage to transition to\n  function transitionToState(uint _bountyId, BountyStages _newStage)\n      internal\n  {\n      bounties[_bountyId].bountyStage = _newStage;\n  }\n}\n",
  "sourcePath": "/Users/fancy/Documents/Ocean Protocol/research/9-token_distribution/erc20_token/contracts/Bounties.sol",
  "compiler": {
    "name": "solc",
    "version": "0.4.24+commit.e67f0147.Emscripten.clang"
  },
  "schemaVersion": "2.0.0",
  "updatedAt": "2018-07-30T22:57:07.852Z"
}