{
  "contractName": "Bounties",
  "abi": [
    {
      "constant": true,
      "inputs": [],
      "name": "owner",
      "outputs": [
        {
          "name": "",
          "type": "address"
        }
      ],
      "payable": false,
      "stateMutability": "view",
      "type": "function"
    },
    {
      "constant": true,
      "inputs": [],
      "name": "mToken",
      "outputs": [
        {
          "name": "",
          "type": "address"
        }
      ],
      "payable": false,
      "stateMutability": "view",
      "type": "function"
    },
    {
      "constant": true,
      "inputs": [
        {
          "name": "",
          "type": "uint256"
        }
      ],
      "name": "bounties",
      "outputs": [
        {
          "name": "issuer",
          "type": "address"
        },
        {
          "name": "deadline",
          "type": "uint256"
        },
        {
          "name": "data",
          "type": "string"
        },
        {
          "name": "fulfillmentAmount",
          "type": "uint256"
        },
        {
          "name": "arbiter",
          "type": "address"
        },
        {
          "name": "paysTokens",
          "type": "bool"
        },
        {
          "name": "bountyStage",
          "type": "uint8"
        },
        {
          "name": "balance",
          "type": "uint256"
        }
      ],
      "payable": false,
      "stateMutability": "view",
      "type": "function"
    },
    {
      "inputs": [
        {
          "name": "_tokenAddress",
          "type": "address"
        }
      ],
      "payable": false,
      "stateMutability": "nonpayable",
      "type": "constructor"
    },
    {
      "anonymous": false,
      "inputs": [
        {
          "indexed": false,
          "name": "bountyId",
          "type": "uint256"
        }
      ],
      "name": "BountyIssued",
      "type": "event"
    },
    {
      "anonymous": false,
      "inputs": [
        {
          "indexed": false,
          "name": "bountyId",
          "type": "uint256"
        },
        {
          "indexed": false,
          "name": "issuer",
          "type": "address"
        }
      ],
      "name": "BountyActivated",
      "type": "event"
    },
    {
      "anonymous": false,
      "inputs": [
        {
          "indexed": false,
          "name": "bountyId",
          "type": "uint256"
        },
        {
          "indexed": true,
          "name": "fulfiller",
          "type": "address"
        },
        {
          "indexed": true,
          "name": "_fulfillmentId",
          "type": "uint256"
        }
      ],
      "name": "BountyFulfilled",
      "type": "event"
    },
    {
      "anonymous": false,
      "inputs": [
        {
          "indexed": false,
          "name": "_bountyId",
          "type": "uint256"
        },
        {
          "indexed": false,
          "name": "_fulfillmentId",
          "type": "uint256"
        }
      ],
      "name": "FulfillmentUpdated",
      "type": "event"
    },
    {
      "anonymous": false,
      "inputs": [
        {
          "indexed": false,
          "name": "bountyId",
          "type": "uint256"
        },
        {
          "indexed": true,
          "name": "fulfiller",
          "type": "address"
        },
        {
          "indexed": true,
          "name": "_fulfillmentId",
          "type": "uint256"
        }
      ],
      "name": "FulfillmentAccepted",
      "type": "event"
    },
    {
      "anonymous": false,
      "inputs": [
        {
          "indexed": false,
          "name": "bountyId",
          "type": "uint256"
        },
        {
          "indexed": true,
          "name": "issuer",
          "type": "address"
        }
      ],
      "name": "BountyKilled",
      "type": "event"
    },
    {
      "anonymous": false,
      "inputs": [
        {
          "indexed": false,
          "name": "bountyId",
          "type": "uint256"
        },
        {
          "indexed": true,
          "name": "contributor",
          "type": "address"
        },
        {
          "indexed": false,
          "name": "value",
          "type": "uint256"
        }
      ],
      "name": "ContributionAdded",
      "type": "event"
    },
    {
      "anonymous": false,
      "inputs": [
        {
          "indexed": false,
          "name": "bountyId",
          "type": "uint256"
        },
        {
          "indexed": false,
          "name": "newDeadline",
          "type": "uint256"
        }
      ],
      "name": "DeadlineExtended",
      "type": "event"
    },
    {
      "anonymous": false,
      "inputs": [
        {
          "indexed": false,
          "name": "bountyId",
          "type": "uint256"
        }
      ],
      "name": "BountyChanged",
      "type": "event"
    },
    {
      "anonymous": false,
      "inputs": [
        {
          "indexed": false,
          "name": "_bountyId",
          "type": "uint256"
        },
        {
          "indexed": true,
          "name": "_newIssuer",
          "type": "address"
        }
      ],
      "name": "IssuerTransferred",
      "type": "event"
    },
    {
      "anonymous": false,
      "inputs": [
        {
          "indexed": false,
          "name": "_bountyId",
          "type": "uint256"
        },
        {
          "indexed": false,
          "name": "_newFulfillmentAmount",
          "type": "uint256"
        }
      ],
      "name": "PayoutIncreased",
      "type": "event"
    },
    {
      "constant": false,
      "inputs": [
        {
          "name": "_issuer",
          "type": "address"
        },
        {
          "name": "_deadline",
          "type": "uint256"
        },
        {
          "name": "_data",
          "type": "string"
        },
        {
          "name": "_fulfillmentAmount",
          "type": "uint256"
        },
        {
          "name": "_arbiter",
          "type": "address"
        },
        {
          "name": "_paysTokens",
          "type": "bool"
        },
        {
          "name": "_tokenContract",
          "type": "address"
        }
      ],
      "name": "issueBounty",
      "outputs": [
        {
          "name": "",
          "type": "uint256"
        }
      ],
      "payable": false,
      "stateMutability": "nonpayable",
      "type": "function"
    },
    {
      "constant": false,
      "inputs": [
        {
          "name": "_issuer",
          "type": "address"
        },
        {
          "name": "_deadline",
          "type": "uint256"
        },
        {
          "name": "_data",
          "type": "string"
        },
        {
          "name": "_fulfillmentAmount",
          "type": "uint256"
        },
        {
          "name": "_arbiter",
          "type": "address"
        },
        {
          "name": "_paysTokens",
          "type": "bool"
        },
        {
          "name": "_tokenContract",
          "type": "address"
        },
        {
          "name": "_value",
          "type": "uint256"
        }
      ],
      "name": "issueAndActivateBounty",
      "outputs": [
        {
          "name": "",
          "type": "uint256"
        }
      ],
      "payable": true,
      "stateMutability": "payable",
      "type": "function"
    },
    {
      "constant": false,
      "inputs": [
        {
          "name": "_bountyId",
          "type": "uint256"
        },
        {
          "name": "_value",
          "type": "uint256"
        }
      ],
      "name": "contribute",
      "outputs": [],
      "payable": true,
      "stateMutability": "payable",
      "type": "function"
    },
    {
      "constant": false,
      "inputs": [
        {
          "name": "_bountyId",
          "type": "uint256"
        },
        {
          "name": "_value",
          "type": "uint256"
        }
      ],
      "name": "activateBounty",
      "outputs": [],
      "payable": true,
      "stateMutability": "payable",
      "type": "function"
    },
    {
      "constant": false,
      "inputs": [
        {
          "name": "_bountyId",
          "type": "uint256"
        },
        {
          "name": "_data",
          "type": "string"
        }
      ],
      "name": "fulfillBounty",
      "outputs": [],
      "payable": false,
      "stateMutability": "nonpayable",
      "type": "function"
    },
    {
      "constant": false,
      "inputs": [
        {
          "name": "_bountyId",
          "type": "uint256"
        },
        {
          "name": "_fulfillmentId",
          "type": "uint256"
        },
        {
          "name": "_data",
          "type": "string"
        }
      ],
      "name": "updateFulfillment",
      "outputs": [],
      "payable": false,
      "stateMutability": "nonpayable",
      "type": "function"
    },
    {
      "constant": false,
      "inputs": [
        {
          "name": "_bountyId",
          "type": "uint256"
        },
        {
          "name": "_fulfillmentId",
          "type": "uint256"
        }
      ],
      "name": "acceptFulfillment",
      "outputs": [],
      "payable": false,
      "stateMutability": "nonpayable",
      "type": "function"
    },
    {
      "constant": false,
      "inputs": [
        {
          "name": "_bountyId",
          "type": "uint256"
        }
      ],
      "name": "killBounty",
      "outputs": [],
      "payable": false,
      "stateMutability": "nonpayable",
      "type": "function"
    },
    {
      "constant": false,
      "inputs": [
        {
          "name": "_bountyId",
          "type": "uint256"
        },
        {
          "name": "_newDeadline",
          "type": "uint256"
        }
      ],
      "name": "extendDeadline",
      "outputs": [],
      "payable": false,
      "stateMutability": "nonpayable",
      "type": "function"
    },
    {
      "constant": false,
      "inputs": [
        {
          "name": "_bountyId",
          "type": "uint256"
        },
        {
          "name": "_newIssuer",
          "type": "address"
        }
      ],
      "name": "transferIssuer",
      "outputs": [],
      "payable": false,
      "stateMutability": "nonpayable",
      "type": "function"
    },
    {
      "constant": false,
      "inputs": [
        {
          "name": "_bountyId",
          "type": "uint256"
        },
        {
          "name": "_newDeadline",
          "type": "uint256"
        }
      ],
      "name": "changeBountyDeadline",
      "outputs": [],
      "payable": false,
      "stateMutability": "nonpayable",
      "type": "function"
    },
    {
      "constant": false,
      "inputs": [
        {
          "name": "_bountyId",
          "type": "uint256"
        },
        {
          "name": "_newData",
          "type": "string"
        }
      ],
      "name": "changeBountyData",
      "outputs": [],
      "payable": false,
      "stateMutability": "nonpayable",
      "type": "function"
    },
    {
      "constant": false,
      "inputs": [
        {
          "name": "_bountyId",
          "type": "uint256"
        },
        {
          "name": "_newFulfillmentAmount",
          "type": "uint256"
        }
      ],
      "name": "changeBountyFulfillmentAmount",
      "outputs": [],
      "payable": false,
      "stateMutability": "nonpayable",
      "type": "function"
    },
    {
      "constant": false,
      "inputs": [
        {
          "name": "_bountyId",
          "type": "uint256"
        },
        {
          "name": "_newArbiter",
          "type": "address"
        }
      ],
      "name": "changeBountyArbiter",
      "outputs": [],
      "payable": false,
      "stateMutability": "nonpayable",
      "type": "function"
    },
    {
      "constant": false,
      "inputs": [
        {
          "name": "_bountyId",
          "type": "uint256"
        },
        {
          "name": "_newFulfillmentAmount",
          "type": "uint256"
        },
        {
          "name": "_value",
          "type": "uint256"
        }
      ],
      "name": "increasePayout",
      "outputs": [],
      "payable": true,
      "stateMutability": "payable",
      "type": "function"
    },
    {
      "constant": true,
      "inputs": [
        {
          "name": "_bountyId",
          "type": "uint256"
        },
        {
          "name": "_fulfillmentId",
          "type": "uint256"
        }
      ],
      "name": "getFulfillment",
      "outputs": [
        {
          "name": "",
          "type": "bool"
        },
        {
          "name": "",
          "type": "address"
        },
        {
          "name": "",
          "type": "string"
        }
      ],
      "payable": false,
      "stateMutability": "view",
      "type": "function"
    },
    {
      "constant": true,
      "inputs": [
        {
          "name": "_bountyId",
          "type": "uint256"
        }
      ],
      "name": "getBounty",
      "outputs": [
        {
          "name": "",
          "type": "address"
        },
        {
          "name": "",
          "type": "uint256"
        },
        {
          "name": "",
          "type": "uint256"
        },
        {
          "name": "",
          "type": "bool"
        },
        {
          "name": "",
          "type": "uint256"
        },
        {
          "name": "",
          "type": "uint256"
        }
      ],
      "payable": false,
      "stateMutability": "view",
      "type": "function"
    },
    {
      "constant": true,
      "inputs": [
        {
          "name": "_bountyId",
          "type": "uint256"
        }
      ],
      "name": "getBountyArbiter",
      "outputs": [
        {
          "name": "",
          "type": "address"
        }
      ],
      "payable": false,
      "stateMutability": "view",
      "type": "function"
    },
    {
      "constant": true,
      "inputs": [
        {
          "name": "_bountyId",
          "type": "uint256"
        }
      ],
      "name": "getBountyData",
      "outputs": [
        {
          "name": "",
          "type": "string"
        }
      ],
      "payable": false,
      "stateMutability": "view",
      "type": "function"
    },
    {
      "constant": true,
      "inputs": [
        {
          "name": "_bountyId",
          "type": "uint256"
        }
      ],
      "name": "getBountyToken",
      "outputs": [
        {
          "name": "",
          "type": "address"
        }
      ],
      "payable": false,
      "stateMutability": "view",
      "type": "function"
    },
    {
      "constant": true,
      "inputs": [],
      "name": "getNumBounties",
      "outputs": [
        {
          "name": "",
          "type": "uint256"
        }
      ],
      "payable": false,
      "stateMutability": "view",
      "type": "function"
    },
    {
      "constant": true,
      "inputs": [
        {
          "name": "_bountyId",
          "type": "uint256"
        }
      ],
      "name": "getNumFulfillments",
      "outputs": [
        {
          "name": "",
          "type": "uint256"
        }
      ],
      "payable": false,
      "stateMutability": "view",
      "type": "function"
    }
  ],
  "bytecode": "0x608060405234801561001057600080fd5b506040516020806200436e83398101806040528101908080519060200190929190505050336000806101000a81548173ffffffffffffffffffffffffffffffffffffffff021916908373ffffffffffffffffffffffffffffffffffffffff160217905550600073ffffffffffffffffffffffffffffffffffffffff168173ffffffffffffffffffffffffffffffffffffffff16141515156100b057600080fd5b80600260006101000a81548173ffffffffffffffffffffffffffffffffffffffff021916908373ffffffffffffffffffffffffffffffffffffffff1602179055505061426c80620001026000396000f300608060405260043610610149576000357c0100000000000000000000000000000000000000000000000000000000900463ffffffff16806316b575091461014e57806319dba3d21461017b5780631e688c14146101e85780632d1fdef61461025b5780633278ba2f1461029257806341ac5dd0146102bd578063422d4cd61461033a578063452ccadb1461036e5780635d19606e146103a5578063626a413a146103f2578063788acd7e1461041c5780637e9e511d1461051957806386647bac146106135780638c590917146106805780638da5cb5b146106aa578063a60745aa14610701578063b94b0a3a146107a7578063c3b6f93914610895578063cdad6576146108ec578063d6c0ceab14610939578063d958349714610970578063dc2f8744146109a7578063ee8c4bbf14610ae8578063f3d3402a14610b7c578063fbe334f814610bef575b600080fd5b34801561015a57600080fd5b5061017960048036038101908080359060200190929190505050610c30565b005b34801561018757600080fd5b506101a660048036038101908080359060200190929190505050610f8f565b604051808273ffffffffffffffffffffffffffffffffffffffff1673ffffffffffffffffffffffffffffffffffffffff16815260200191505060405180910390f35b3480156101f457600080fd5b5061025960048036038101908080359060200190929190803590602001908201803590602001908080601f0160208091040260200160405190810160405280939291908181526020018383808284378201915050505050509192919290505050610fe1565b005b34801561026757600080fd5b506102906004803603810190808035906020019092919080359060200190929190505050611316565b005b34801561029e57600080fd5b506102a7611441565b6040518082815260200191505060405180910390f35b3480156102c957600080fd5b506103386004803603810190808035906020019092919080359060200190929190803590602001908201803590602001908080601f016020809104026020016040519081016040528093929190818152602001838380828437820191505050505050919291929050505061144e565b005b61036c6004803603810190808035906020019092919080359060200190929190803590602001909291905050506115f9565b005b34801561037a57600080fd5b506103a36004803603810190808035906020019092919080359060200190929190505050611b5f565b005b3480156103b157600080fd5b506103f060048036038101908080359060200190929190803573ffffffffffffffffffffffffffffffffffffffff169060200190929190505050611ca6565b005b61041a6004803603810190808035906020019092919080359060200190929190505050611de8565b005b34801561042857600080fd5b50610503600480360381019080803573ffffffffffffffffffffffffffffffffffffffff16906020019092919080359060200190929190803590602001908201803590602001908080601f016020809104026020016040519081016040528093929190818152602001838380828437820191505050505050919291929080359060200190929190803573ffffffffffffffffffffffffffffffffffffffff169060200190929190803515159060200190929190803573ffffffffffffffffffffffffffffffffffffffff1690602001909291905050506123d4565b6040518082815260200191505060405180910390f35b6105fd600480360381019080803573ffffffffffffffffffffffffffffffffffffffff16906020019092919080359060200190929190803590602001908201803590602001908080601f016020809104026020016040519081016040528093929190818152602001838380828437820191505050505050919291929080359060200190929190803573ffffffffffffffffffffffffffffffffffffffff169060200190929190803515159060200190929190803573ffffffffffffffffffffffffffffffffffffffff1690602001909291908035906020019092919050505061267d565b6040518082815260200191505060405180910390f35b34801561061f57600080fd5b5061063e60048036038101908080359060200190929190505050612b7c565b604051808273ffffffffffffffffffffffffffffffffffffffff1673ffffffffffffffffffffffffffffffffffffffff16815260200191505060405180910390f35b6106a86004803603810190808035906020019092919080359060200190929190505050612bdb565b005b3480156106b657600080fd5b506106bf6130ec565b604051808273ffffffffffffffffffffffffffffffffffffffff1673ffffffffffffffffffffffffffffffffffffffff16815260200191505060405180910390f35b34801561070d57600080fd5b5061072c60048036038101908080359060200190929190505050613111565b6040518080602001828103825283818151815260200191508051906020019080838360005b8381101561076c578082015181840152602081019050610751565b50505050905090810190601f1680156107995780820380516001836020036101000a031916815260200191505b509250505060405180910390f35b3480156107b357600080fd5b506107dc60048036038101908080359060200190929190803590602001909291905050506131e8565b60405180841515151581526020018373ffffffffffffffffffffffffffffffffffffffff1673ffffffffffffffffffffffffffffffffffffffff16815260200180602001828103825283818151815260200191508051906020019080838360005b8381101561085857808201518184015260208101905061083d565b50505050905090810190601f1680156108855780820380516001836020036101000a031916815260200191505b5094505050505060405180910390f35b3480156108a157600080fd5b506108aa613395565b604051808273ffffffffffffffffffffffffffffffffffffffff1673ffffffffffffffffffffffffffffffffffffffff16815260200191505060405180910390f35b3480156108f857600080fd5b5061093760048036038101908080359060200190929190803573ffffffffffffffffffffffffffffffffffffffff1690602001909291905050506133bb565b005b34801561094557600080fd5b5061096e600480360381019080803590602001909291908035906020019092919050505061353c565b005b34801561097c57600080fd5b506109a56004803603810190808035906020019092919080359060200190929190505050613693565b005b3480156109b357600080fd5b506109d260048036038101908080359060200190929190505050613cc3565b604051808973ffffffffffffffffffffffffffffffffffffffff1673ffffffffffffffffffffffffffffffffffffffff168152602001888152602001806020018781526020018673ffffffffffffffffffffffffffffffffffffffff1673ffffffffffffffffffffffffffffffffffffffff16815260200185151515158152602001846002811115610a6057fe5b60ff168152602001838152602001828103825288818151815260200191508051906020019080838360005b83811015610aa6578082015181840152602081019050610a8b565b50505050905090810190601f168015610ad35780820380516001836020036101000a031916815260200191505b50995050505050505050505060405180910390f35b348015610af457600080fd5b50610b1360048036038101908080359060200190929190505050613e0c565b604051808773ffffffffffffffffffffffffffffffffffffffff1673ffffffffffffffffffffffffffffffffffffffff16815260200186815260200185815260200184151515158152602001838152602001828152602001965050505050505060405180910390f35b348015610b8857600080fd5b50610bed60048036038101908080359060200190929190803590602001908201803590602001908080601f0160208091040260200160405190810160405280939291908181526020018383808284378201915050505050509192919290505050613f4a565b005b348015610bfb57600080fd5b50610c1a600480360381019080803590602001909291905050506140a1565b6040518082815260200191505060405180910390f35b60008160018054905081101515610c4657600080fd5b82600181815481101515610c5657fe5b906000526020600020906006020160000160009054906101000a900473ffffffffffffffffffffffffffffffffffffffff1673ffffffffffffffffffffffffffffffffffffffff163373ffffffffffffffffffffffffffffffffffffffff16141515610cc157600080fd5b610ccc8460026140d6565b600184815481101515610cdb57fe5b90600052602060002090600602016005015492506000600185815481101515610d0057fe5b9060005260206000209060060201600501819055506000831115610f3b57600184815481101515610d2d57fe5b906000526020600020906006020160040160149054906101000a900460ff1615610eb2576005600085815260200190815260200160002060009054906101000a900473ffffffffffffffffffffffffffffffffffffffff1673ffffffffffffffffffffffffffffffffffffffff1663a9059cbb600186815481101515610daf57fe5b906000526020600020906006020160000160009054906101000a900473ffffffffffffffffffffffffffffffffffffffff16856040518363ffffffff167c0100000000000000000000000000000000000000000000000000000000028152600401808373ffffffffffffffffffffffffffffffffffffffff1673ffffffffffffffffffffffffffffffffffffffff16815260200182815260200192505050602060405180830381600087803b158015610e6757600080fd5b505af1158015610e7b573d6000803e3d6000fd5b505050506040513d6020811015610e9157600080fd5b81019080805190602001909291905050501515610ead57600080fd5b610f3a565b600184815481101515610ec157fe5b906000526020600020906006020160000160009054906101000a900473ffffffffffffffffffffffffffffffffffffffff1673ffffffffffffffffffffffffffffffffffffffff166108fc849081150290604051600060405180830381858888f19350505050158015610f38573d6000803e3d6000fd5b505b5b3373ffffffffffffffffffffffffffffffffffffffff167f1b5171f0f6cd238c5b76b002b28e5c29dc3864174e7ed7f168b5e6373196d901856040518082815260200191505060405180910390a250505050565b60008160018054905081101515610fa557600080fd5b6005600084815260200190815260200160002060009054906101000a900473ffffffffffffffffffffffffffffffffffffffff16915050919050565b8160018054905081101515610ff557600080fd5b826003600082815260200190815260200160002080549050600160036000848152602001908152602001600020805490500111151561103357600080fd5b83600180600281111561104257fe5b60018381548110151561105157fe5b906000526020600020906006020160040160159054906101000a900460ff16600281111561107b57fe5b14151561108757600080fd5b8560018181548110151561109757fe5b906000526020600020906006020160010154421015156110b657600080fd5b866001818154811015156110c657fe5b906000526020600020906006020160000160009054906101000a900473ffffffffffffffffffffffffffffffffffffffff1673ffffffffffffffffffffffffffffffffffffffff163373ffffffffffffffffffffffffffffffffffffffff161415801561119f575060018181548110151561113d57fe5b906000526020600020906006020160040160009054906101000a900473ffffffffffffffffffffffffffffffffffffffff1673ffffffffffffffffffffffffffffffffffffffff163373ffffffffffffffffffffffffffffffffffffffff1614155b15156111aa57600080fd5b600360008981526020019081526020016000206060604051908101604052806000151581526020013373ffffffffffffffffffffffffffffffffffffffff168152602001898152509080600181540180825580915050906001820390600052602060002090600202016000909192909190915060008201518160000160006101000a81548160ff02191690831515021790555060208201518160000160016101000a81548173ffffffffffffffffffffffffffffffffffffffff021916908373ffffffffffffffffffffffffffffffffffffffff16021790555060408201518160010190805190602001906112a092919061411b565b505050506001600360008a815260200190815260200160002080549050033373ffffffffffffffffffffffffffffffffffffffff167feb70bc86dda3bbb4f37b25318d4737f2641d3e315df2f59a123c5a06197103578a6040518082815260200191505060405180910390a35050505050505050565b816001805490508110151561132a57600080fd5b8260018181548110151561133a57fe5b906000526020600020906006020160000160009054906101000a900473ffffffffffffffffffffffffffffffffffffffff1673ffffffffffffffffffffffffffffffffffffffff163373ffffffffffffffffffffffffffffffffffffffff161415156113a557600080fd5b83836001828154811015156113b657fe5b906000526020600020906006020160010154811115156113d557600080fd5b846001878154811015156113e557fe5b9060005260206000209060060201600101819055507f073d5fd87a7e0c2a384727f9aab2e84826370623aba582638b425a417e799a2c8686604051808381526020018281526020019250505060405180910390a1505050505050565b6000600180549050905090565b826001805490508110151561146257600080fd5b838360036000838152602001908152602001600020805490508110151561148857600080fd5b858560036000838152602001908152602001600020818154811015156114aa57fe5b906000526020600020906002020160000160019054906101000a900473ffffffffffffffffffffffffffffffffffffffff1673ffffffffffffffffffffffffffffffffffffffff163373ffffffffffffffffffffffffffffffffffffffff1614151561151557600080fd5b878760001515600360008481526020019081526020016000208281548110151561153b57fe5b906000526020600020906002020160000160009054906101000a900460ff16151514151561156857600080fd5b87600360008c81526020019081526020016000208a81548110151561158957fe5b906000526020600020906002020160010190805190602001906115ad92919061419b565b507f6e609af2c76c6673122c9a6ee1677adc2e9f20ec9979d056bf6c4f40799b95588a8a604051808381526020018281526020019250505060405180910390a150505050505050505050565b826001805490508110151561160d57600080fd5b8360018181548110151561161d57fe5b906000526020600020906006020160000160009054906101000a900473ffffffffffffffffffffffffffffffffffffffff1673ffffffffffffffffffffffffffffffffffffffff163373ffffffffffffffffffffffffffffffffffffffff1614151561168857600080fd5b84848060018381548110151561169a57fe5b9060005260206000209060060201600301541015156116b857600080fd5b868560006001838154811015156116cb57fe5b906000526020600020906006020160040160149054906101000a900460ff1615611a81576000341415156116fe57600080fd5b6005600084815260200190815260200160002060009054906101000a900473ffffffffffffffffffffffffffffffffffffffff1673ffffffffffffffffffffffffffffffffffffffff166370a08231306040518263ffffffff167c0100000000000000000000000000000000000000000000000000000000028152600401808273ffffffffffffffffffffffffffffffffffffffff1673ffffffffffffffffffffffffffffffffffffffff168152602001915050602060405180830381600087803b1580156117cc57600080fd5b505af11580156117e0573d6000803e3d6000fd5b505050506040513d60208110156117f657600080fd5b81019080805190602001909291905050509050600082141515611964576005600084815260200190815260200160002060009054906101000a900473ffffffffffffffffffffffffffffffffffffffff1673ffffffffffffffffffffffffffffffffffffffff166323b872dd3330856040518463ffffffff167c0100000000000000000000000000000000000000000000000000000000028152600401808473ffffffffffffffffffffffffffffffffffffffff1673ffffffffffffffffffffffffffffffffffffffff1681526020018373ffffffffffffffffffffffffffffffffffffffff1673ffffffffffffffffffffffffffffffffffffffff1681526020018281526020019350505050602060405180830381600087803b15801561191d57600080fd5b505af1158015611931573d6000803e3d6000fd5b505050506040513d602081101561194757600080fd5b8101908080519060200190929190505050151561196357600080fd5b5b81816005600086815260200190815260200160002060009054906101000a900473ffffffffffffffffffffffffffffffffffffffff1673ffffffffffffffffffffffffffffffffffffffff166370a08231306040518263ffffffff167c0100000000000000000000000000000000000000000000000000000000028152600401808273ffffffffffffffffffffffffffffffffffffffff1673ffffffffffffffffffffffffffffffffffffffff168152602001915050602060405180830381600087803b158015611a3457600080fd5b505af1158015611a48573d6000803e3d6000fd5b505050506040513d6020811015611a5e57600080fd5b810190808051906020019092919050505003141515611a7c57600080fd5b611a93565b3460018302141515611a9257600080fd5b5b8760018b815481101515611aa357fe5b9060005260206000209060060201600501600082825401925050819055508860018b815481101515611ad157fe5b90600052602060002090600602016005015410151515611af057600080fd5b8860018b815481101515611b0057fe5b9060005260206000209060060201600301819055507e61c78e3c7ddc2b1bfc8ba5996c63dd51b289e6ee3bd6f0e55089cf698aa6928a8a604051808381526020018281526020019250505060405180910390a150505050505050505050565b8160018054905081101515611b7357600080fd5b82600181815481101515611b8357fe5b906000526020600020906006020160000160009054906101000a900473ffffffffffffffffffffffffffffffffffffffff1673ffffffffffffffffffffffffffffffffffffffff163373ffffffffffffffffffffffffffffffffffffffff16141515611bee57600080fd5b836000806002811115611bfd57fe5b600183815481101515611c0c57fe5b906000526020600020906006020160040160159054906101000a900460ff166002811115611c3657fe5b141515611c4257600080fd5b84600187815481101515611c5257fe5b9060005260206000209060060201600301819055507ffb8e4f1ace1b37ebd0423cd75b120660780cc08a9414e04fe6b50f96a9482dde866040518082815260200191505060405180910390a1505050505050565b8160018054905081101515611cba57600080fd5b82600181815481101515611cca57fe5b906000526020600020906006020160000160009054906101000a900473ffffffffffffffffffffffffffffffffffffffff1673ffffffffffffffffffffffffffffffffffffffff163373ffffffffffffffffffffffffffffffffffffffff16141515611d3557600080fd5b82600185815481101515611d4557fe5b906000526020600020906006020160000160006101000a81548173ffffffffffffffffffffffffffffffffffffffff021916908373ffffffffffffffffffffffffffffffffffffffff1602179055508273ffffffffffffffffffffffffffffffffffffffff167f76a6676aed9f1a70fb8043b568311724b5e4cec1d68ff8fc9d5ab0a6fa619c17856040518082815260200191505060405180910390a250505050565b8160018054905081101515611dfc57600080fd5b82600181815481101515611e0c57fe5b90600052602060002090600602016001015442101515611e2b57600080fd5b83600181815481101515611e3b57fe5b906000526020600020906006020160000160009054906101000a900473ffffffffffffffffffffffffffffffffffffffff1673ffffffffffffffffffffffffffffffffffffffff163373ffffffffffffffffffffffffffffffffffffffff16141515611ea657600080fd5b84846000600183815481101515611eb957fe5b906000526020600020906006020160040160149054906101000a900460ff161561226f57600034141515611eec57600080fd5b6005600084815260200190815260200160002060009054906101000a900473ffffffffffffffffffffffffffffffffffffffff1673ffffffffffffffffffffffffffffffffffffffff166370a08231306040518263ffffffff167c0100000000000000000000000000000000000000000000000000000000028152600401808273ffffffffffffffffffffffffffffffffffffffff1673ffffffffffffffffffffffffffffffffffffffff168152602001915050602060405180830381600087803b158015611fba57600080fd5b505af1158015611fce573d6000803e3d6000fd5b505050506040513d6020811015611fe457600080fd5b81019080805190602001909291905050509050600082141515612152576005600084815260200190815260200160002060009054906101000a900473ffffffffffffffffffffffffffffffffffffffff1673ffffffffffffffffffffffffffffffffffffffff166323b872dd3330856040518463ffffffff167c0100000000000000000000000000000000000000000000000000000000028152600401808473ffffffffffffffffffffffffffffffffffffffff1673ffffffffffffffffffffffffffffffffffffffff1681526020018373ffffffffffffffffffffffffffffffffffffffff1673ffffffffffffffffffffffffffffffffffffffff1681526020018281526020019350505050602060405180830381600087803b15801561210b57600080fd5b505af115801561211f573d6000803e3d6000fd5b505050506040513d602081101561213557600080fd5b8101908080519060200190929190505050151561215157600080fd5b5b81816005600086815260200190815260200160002060009054906101000a900473ffffffffffffffffffffffffffffffffffffffff1673ffffffffffffffffffffffffffffffffffffffff166370a08231306040518263ffffffff167c0100000000000000000000000000000000000000000000000000000000028152600401808273ffffffffffffffffffffffffffffffffffffffff1673ffffffffffffffffffffffffffffffffffffffff168152602001915050602060405180830381600087803b15801561222257600080fd5b505af1158015612236573d6000803e3d6000fd5b505050506040513d602081101561224c57600080fd5b81019080805190602001909291905050500314151561226a57600080fd5b612281565b346001830214151561228057600080fd5b5b8660018981548110151561229157fe5b9060005260206000209060060201600501600082825401925050819055506001888154811015156122be57fe5b9060005260206000209060060201600301546001898154811015156122df57fe5b906000526020600020906006020160050154101515156122fe57600080fd5b6123098860016140d6565b3373ffffffffffffffffffffffffffffffffffffffff167f75aecd8d57cb4b1b263271bddb4961b993924dd466e6003c254832572d8a57e18989604051808381526020018281526020019250505060405180910390a27fe42c1b76efa2e9aa5b354a151174590827beb1ef94bde26787491bf4e7d68a198833604051808381526020018273ffffffffffffffffffffffffffffffffffffffff1673ffffffffffffffffffffffffffffffffffffffff1681526020019250505060405180910390a15050505050505050565b60008642811115156123e557600080fd5b85600081141515156123f657600080fd5b600180549050600180805490500111151561241057600080fd5b6001610100604051908101604052808c73ffffffffffffffffffffffffffffffffffffffff1681526020018b81526020018a81526020018981526020018873ffffffffffffffffffffffffffffffffffffffff16815260200187151581526020016000600281111561247e57fe5b815260200160008152509080600181540180825580915050906001820390600052602060002090600602016000909192909190915060008201518160000160006101000a81548173ffffffffffffffffffffffffffffffffffffffff021916908373ffffffffffffffffffffffffffffffffffffffff16021790555060208201518160010155604082015181600201908051906020019061252092919061411b565b506060820151816003015560808201518160040160006101000a81548173ffffffffffffffffffffffffffffffffffffffff021916908373ffffffffffffffffffffffffffffffffffffffff16021790555060a08201518160040160146101000a81548160ff02191690831515021790555060c08201518160040160156101000a81548160ff021916908360028111156125b657fe5b021790555060e0820151816005015550505084156126285783600560006001808054905003815260200190815260200160002060006101000a81548173ffffffffffffffffffffffffffffffffffffffff021916908373ffffffffffffffffffffffffffffffffffffffff1602179055505b7fe04ac09e4a49338f40cf62a51ba721823ed22f57bc4d53c6f8684bdb1be8fd1060018080549050036040518082815260200191505060405180910390a1600180805490500392505050979650505050505050565b600087428111151561268e57600080fd5b866000811415151561269f57600080fd5b60018054905060018080549050011115156126b957600080fd5b8784101515156126c857600080fd5b851561288e576000341415156126dd57600080fd5b8460056000600180549050815260200190815260200160002060006101000a81548173ffffffffffffffffffffffffffffffffffffffff021916908373ffffffffffffffffffffffffffffffffffffffff16021790555060056000600180549050815260200190815260200160002060009054906101000a900473ffffffffffffffffffffffffffffffffffffffff1673ffffffffffffffffffffffffffffffffffffffff166323b872dd3330876040518463ffffffff167c0100000000000000000000000000000000000000000000000000000000028152600401808473ffffffffffffffffffffffffffffffffffffffff1673ffffffffffffffffffffffffffffffffffffffff1681526020018373ffffffffffffffffffffffffffffffffffffffff1673ffffffffffffffffffffffffffffffffffffffff1681526020018281526020019350505050602060405180830381600087803b15801561284357600080fd5b505af1158015612857573d6000803e3d6000fd5b505050506040513d602081101561286d57600080fd5b8101908080519060200190929190505050151561288957600080fd5b6128a0565b346001850214151561289f57600080fd5b5b6001610100604051908101604052808d73ffffffffffffffffffffffffffffffffffffffff1681526020018c81526020018b81526020018a81526020018973ffffffffffffffffffffffffffffffffffffffff16815260200188151581526020016001600281111561290e57fe5b8152602001868152509080600181540180825580915050906001820390600052602060002090600602016000909192909190915060008201518160000160006101000a81548173ffffffffffffffffffffffffffffffffffffffff021916908373ffffffffffffffffffffffffffffffffffffffff1602179055506020820151816001015560408201518160020190805190602001906129af92919061411b565b506060820151816003015560808201518160040160006101000a81548173ffffffffffffffffffffffffffffffffffffffff021916908373ffffffffffffffffffffffffffffffffffffffff16021790555060a08201518160040160146101000a81548160ff02191690831515021790555060c08201518160040160156101000a81548160ff02191690836002811115612a4557fe5b021790555060e082015181600501555050507fe04ac09e4a49338f40cf62a51ba721823ed22f57bc4d53c6f8684bdb1be8fd1060018080549050036040518082815260200191505060405180910390a13373ffffffffffffffffffffffffffffffffffffffff167f75aecd8d57cb4b1b263271bddb4961b993924dd466e6003c254832572d8a57e1600180805490500386604051808381526020018281526020019250505060405180910390a27fe42c1b76efa2e9aa5b354a151174590827beb1ef94bde26787491bf4e7d68a19600180805490500333604051808381526020018273ffffffffffffffffffffffffffffffffffffffff1673ffffffffffffffffffffffffffffffffffffffff1681526020019250505060405180910390a160018080549050039250505098975050505050505050565b60008160018054905081101515612b9257600080fd5b600183815481101515612ba157fe5b906000526020600020906006020160040160009054906101000a900473ffffffffffffffffffffffffffffffffffffffff16915050919050565b8160018054905081101515612bef57600080fd5b82600181815481101515612bff57fe5b90600052602060002090600602016001015442101515612c1e57600080fd5b83600280811115612c2b57fe5b600182815481101515612c3a57fe5b906000526020600020906006020160040160159054906101000a900460ff166002811115612c6457fe5b14151515612c7157600080fd5b8360008114151515612c8257600080fd5b85856000600183815481101515612c9557fe5b906000526020600020906006020160040160149054906101000a900460ff161561304b57600034141515612cc857600080fd5b6005600084815260200190815260200160002060009054906101000a900473ffffffffffffffffffffffffffffffffffffffff1673ffffffffffffffffffffffffffffffffffffffff166370a08231306040518263ffffffff167c0100000000000000000000000000000000000000000000000000000000028152600401808273ffffffffffffffffffffffffffffffffffffffff1673ffffffffffffffffffffffffffffffffffffffff168152602001915050602060405180830381600087803b158015612d9657600080fd5b505af1158015612daa573d6000803e3d6000fd5b505050506040513d6020811015612dc057600080fd5b81019080805190602001909291905050509050600082141515612f2e576005600084815260200190815260200160002060009054906101000a900473ffffffffffffffffffffffffffffffffffffffff1673ffffffffffffffffffffffffffffffffffffffff166323b872dd3330856040518463ffffffff167c0100000000000000000000000000000000000000000000000000000000028152600401808473ffffffffffffffffffffffffffffffffffffffff1673ffffffffffffffffffffffffffffffffffffffff1681526020018373ffffffffffffffffffffffffffffffffffffffff1673ffffffffffffffffffffffffffffffffffffffff1681526020018281526020019350505050602060405180830381600087803b158015612ee757600080fd5b505af1158015612efb573d6000803e3d6000fd5b505050506040513d6020811015612f1157600080fd5b81019080805190602001909291905050501515612f2d57600080fd5b5b81816005600086815260200190815260200160002060009054906101000a900473ffffffffffffffffffffffffffffffffffffffff1673ffffffffffffffffffffffffffffffffffffffff166370a08231306040518263ffffffff167c0100000000000000000000000000000000000000000000000000000000028152600401808273ffffffffffffffffffffffffffffffffffffffff1673ffffffffffffffffffffffffffffffffffffffff168152602001915050602060405180830381600087803b158015612ffe57600080fd5b505af1158015613012573d6000803e3d6000fd5b505050506040513d602081101561302857600080fd5b81019080805190602001909291905050500314151561304657600080fd5b61305d565b346001830214151561305c57600080fd5b5b8760018a81548110151561306d57fe5b9060005260206000209060060201600501600082825401925050819055503373ffffffffffffffffffffffffffffffffffffffff167f75aecd8d57cb4b1b263271bddb4961b993924dd466e6003c254832572d8a57e18a8a604051808381526020018281526020019250505060405180910390a2505050505050505050565b6000809054906101000a900473ffffffffffffffffffffffffffffffffffffffff1681565b6060816001805490508110151561312757600080fd5b60018381548110151561313657fe5b90600052602060002090600602016002018054600181600116156101000203166002900480601f0160208091040260200160405190810160405280929190818152602001828054600181600116156101000203166002900480156131db5780601f106131b0576101008083540402835291602001916131db565b820191906000526020600020905b8154815290600101906020018083116131be57829003601f168201915b5050505050915050919050565b6000806060846001805490508110151561320157600080fd5b858560036000838152602001908152602001600020805490508110151561322757600080fd5b600360008981526020019081526020016000208781548110151561324757fe5b906000526020600020906002020160000160009054906101000a900460ff16600360008a81526020019081526020016000208881548110151561328657fe5b906000526020600020906002020160000160019054906101000a900473ffffffffffffffffffffffffffffffffffffffff16600360008b8152602001908152602001600020898154811015156132d857fe5b9060005260206000209060020201600101808054600181600116156101000203166002900480601f01602080910402602001604051908101604052809291908181526020018280546001816001161561010002031660029004801561337e5780601f106133535761010080835404028352916020019161337e565b820191906000526020600020905b81548152906001019060200180831161336157829003601f168201915b505050505090509550955095505050509250925092565b600260009054906101000a900473ffffffffffffffffffffffffffffffffffffffff1681565b81600180549050811015156133cf57600080fd5b826001818154811015156133df57fe5b906000526020600020906006020160000160009054906101000a900473ffffffffffffffffffffffffffffffffffffffff1673ffffffffffffffffffffffffffffffffffffffff163373ffffffffffffffffffffffffffffffffffffffff1614151561344a57600080fd5b83600080600281111561345957fe5b60018381548110151561346857fe5b906000526020600020906006020160040160159054906101000a900460ff16600281111561349257fe5b14151561349e57600080fd5b846001878154811015156134ae57fe5b906000526020600020906006020160040160006101000a81548173ffffffffffffffffffffffffffffffffffffffff021916908373ffffffffffffffffffffffffffffffffffffffff1602179055507ffb8e4f1ace1b37ebd0423cd75b120660780cc08a9414e04fe6b50f96a9482dde866040518082815260200191505060405180910390a1505050505050565b816001805490508110151561355057600080fd5b8260018181548110151561356057fe5b906000526020600020906006020160000160009054906101000a900473ffffffffffffffffffffffffffffffffffffffff1673ffffffffffffffffffffffffffffffffffffffff163373ffffffffffffffffffffffffffffffffffffffff161415156135cb57600080fd5b8242811115156135da57600080fd5b8460008060028111156135e957fe5b6001838154811015156135f857fe5b906000526020600020906006020160040160159054906101000a900460ff16600281111561362257fe5b14151561362e57600080fd5b8560018881548110151561363e57fe5b9060005260206000209060060201600101819055507ffb8e4f1ace1b37ebd0423cd75b120660780cc08a9414e04fe6b50f96a9482dde876040518082815260200191505060405180910390a150505050505050565b81600180549050811015156136a757600080fd5b82826003600083815260200190815260200160002080549050811015156136cd57600080fd5b846001818154811015156136dd57fe5b906000526020600020906006020160000160009054906101000a900473ffffffffffffffffffffffffffffffffffffffff1673ffffffffffffffffffffffffffffffffffffffff163373ffffffffffffffffffffffffffffffffffffffff16148061382c575060018181548110151561375257fe5b906000526020600020906006020160040160009054906101000a900473ffffffffffffffffffffffffffffffffffffffff1673ffffffffffffffffffffffffffffffffffffffff163373ffffffffffffffffffffffffffffffffffffffff1614801561382b5750600073ffffffffffffffffffffffffffffffffffffffff166001828154811015156137e057fe5b906000526020600020906006020160040160009054906101000a900473ffffffffffffffffffffffffffffffffffffffff1673ffffffffffffffffffffffffffffffffffffffff1614155b5b151561383757600080fd5b85600180600281111561384657fe5b60018381548110151561385557fe5b906000526020600020906006020160040160159054906101000a900460ff16600281111561387f57fe5b14151561388b57600080fd5b87876000151560036000848152602001908152602001600020828154811015156138b157fe5b906000526020600020906002020160000160009054906101000a900460ff1615151415156138de57600080fd5b896001818154811015156138ee57fe5b90600052602060002090600602016003015460018281548110151561390f57fe5b9060005260206000209060060201600501541015151561392e57600080fd5b6001600360008d81526020019081526020016000208b81548110151561395057fe5b906000526020600020906002020160000160006101000a81548160ff021916908315150217905550600460008c81526020019081526020016000206000815480929190600101919050555060018b8154811015156139aa57fe5b90600052602060002090600602016003015460018c8154811015156139cb57fe5b90600052602060002090600602016005016000828254039250508190555060018b8154811015156139f857fe5b906000526020600020906006020160040160149054906101000a900460ff1615613bae57600560008c815260200190815260200160002060009054906101000a900473ffffffffffffffffffffffffffffffffffffffff1673ffffffffffffffffffffffffffffffffffffffff1663a9059cbb600360008e81526020019081526020016000208c815481101515613a8b57fe5b906000526020600020906002020160000160019054906101000a900473ffffffffffffffffffffffffffffffffffffffff1660018e815481101515613acc57fe5b9060005260206000209060060201600301546040518363ffffffff167c0100000000000000000000000000000000000000000000000000000000028152600401808373ffffffffffffffffffffffffffffffffffffffff1673ffffffffffffffffffffffffffffffffffffffff16815260200182815260200192505050602060405180830381600087803b158015613b6357600080fd5b505af1158015613b77573d6000803e3d6000fd5b505050506040513d6020811015613b8d57600080fd5b81019080805190602001909291905050501515613ba957600080fd5b613c67565b600360008c81526020019081526020016000208a815481101515613bce57fe5b906000526020600020906002020160000160019054906101000a900473ffffffffffffffffffffffffffffffffffffffff1673ffffffffffffffffffffffffffffffffffffffff166108fc60018d815481101515613c2857fe5b9060005260206000209060060201600301549081150290604051600060405180830381858888f19350505050158015613c65573d6000803e3d6000fd5b505b893373ffffffffffffffffffffffffffffffffffffffff167f7b9dbf959e54bb2ff6e9d505ef00d6b7fb3ce97880816181aecca973c1da31e68d6040518082815260200191505060405180910390a35050505050505050505050565b600181815481101515613cd257fe5b90600052602060002090600602016000915090508060000160009054906101000a900473ffffffffffffffffffffffffffffffffffffffff1690806001015490806002018054600181600116156101000203166002900480601f016020809104026020016040519081016040528092919081815260200182805460018160011615610100020316600290048015613daa5780601f10613d7f57610100808354040283529160200191613daa565b820191906000526020600020905b815481529060010190602001808311613d8d57829003601f168201915b5050505050908060030154908060040160009054906101000a900473ffffffffffffffffffffffffffffffffffffffff16908060040160149054906101000a900460ff16908060040160159054906101000a900460ff16908060050154905088565b6000806000806000808660018054905081101515613e2957600080fd5b600188815481101515613e3857fe5b906000526020600020906006020160000160009054906101000a900473ffffffffffffffffffffffffffffffffffffffff16600189815481101515613e7957fe5b90600052602060002090600602016001015460018a815481101515613e9a57fe5b90600052602060002090600602016003015460018b815481101515613ebb57fe5b906000526020600020906006020160040160149054906101000a900460ff1660018c815481101515613ee957fe5b906000526020600020906006020160040160159054906101000a900460ff166002811115613f1357fe5b60018d815481101515613f2257fe5b9060005260206000209060060201600501549650965096509650965096505091939550919395565b8160018054905081101515613f5e57600080fd5b82600181815481101515613f6e57fe5b906000526020600020906006020160000160009054906101000a900473ffffffffffffffffffffffffffffffffffffffff1673ffffffffffffffffffffffffffffffffffffffff163373ffffffffffffffffffffffffffffffffffffffff16141515613fd957600080fd5b836000806002811115613fe857fe5b600183815481101515613ff757fe5b906000526020600020906006020160040160159054906101000a900460ff16600281111561402157fe5b14151561402d57600080fd5b8460018781548110151561403d57fe5b9060005260206000209060060201600201908051906020019061406192919061419b565b507ffb8e4f1ace1b37ebd0423cd75b120660780cc08a9414e04fe6b50f96a9482dde866040518082815260200191505060405180910390a1505050505050565b600081600180549050811015156140b757600080fd5b6003600084815260200190815260200160002080549050915050919050565b806001838154811015156140e657fe5b906000526020600020906006020160040160156101000a81548160ff0219169083600281111561411257fe5b02179055505050565b828054600181600116156101000203166002900490600052602060002090601f016020900481019282601f1061415c57805160ff191683800117855561418a565b8280016001018555821561418a579182015b8281111561418957825182559160200191906001019061416e565b5b509050614197919061421b565b5090565b828054600181600116156101000203166002900490600052602060002090601f016020900481019282601f106141dc57805160ff191683800117855561420a565b8280016001018555821561420a579182015b828111156142095782518255916020019190600101906141ee565b5b509050614217919061421b565b5090565b61423d91905b80821115614239576000816000905550600101614221565b5090565b905600a165627a7a723058201c365f7edb0ebdb95a5920f933e6c3fa06e94a1c307f1bd231a04880cf745ff00029",
  "source": "pragma solidity ^0.4.24;\n\nimport \"./Token.sol\";\n\n/// @title Bounties\n/// @dev Used to pay out individuals or groups for task fulfillment through\n/// stepwise work submission, acceptance, and payment\n/// @author Mark Beylin <mark.beylin@consensys.net>, Gonalo S <goncalo.sa@consensys.net>\ncontract Bounties {\n\n  /*\n   * Events\n   */\n  event BountyIssued(uint bountyId);\n  event BountyActivated(uint bountyId, address issuer);\n  event BountyFulfilled(uint bountyId, address indexed fulfiller, uint256 indexed _fulfillmentId);\n  event FulfillmentUpdated(uint _bountyId, uint _fulfillmentId);\n  event FulfillmentAccepted(uint bountyId, address indexed fulfiller, uint256 indexed _fulfillmentId);\n  event BountyKilled(uint bountyId, address indexed issuer);\n  event ContributionAdded(uint bountyId, address indexed contributor, uint256 value);\n  event DeadlineExtended(uint bountyId, uint newDeadline);\n  event BountyChanged(uint bountyId);\n  event IssuerTransferred(uint _bountyId, address indexed _newIssuer);\n  event PayoutIncreased(uint _bountyId, uint _newFulfillmentAmount);\n\n\n  /*\n   * Storage\n   */\n\n  address public owner;\n\n  Bounty[] public bounties;\n\n  Token  public  mToken;\n\n  mapping(uint=>Fulfillment[]) fulfillments;\n  mapping(uint=>uint) numAccepted;\n  mapping(uint=>Token) tokenContracts;\n\n  /*\n   * Enums\n   */\n\n  enum BountyStages {\n      Draft,\n      Active,\n      Dead\n  }\n\n  /*\n   * Structs\n   */\n\n  struct Bounty {\n      address issuer;\n      uint deadline;\n      string data;\n      uint fulfillmentAmount;\n      address arbiter;\n      bool paysTokens;\n      BountyStages bountyStage;\n      uint balance;\n  }\n\n  struct Fulfillment {\n      bool accepted;\n      address fulfiller;\n      string data;\n  }\n\n  /*\n   * Modifiers\n   */\n\n  modifier validateNotTooManyBounties(){\n    require((bounties.length + 1) > bounties.length);\n    _;\n  }\n\n  modifier validateNotTooManyFulfillments(uint _bountyId){\n    require((fulfillments[_bountyId].length + 1) > fulfillments[_bountyId].length);\n    _;\n  }\n\n  modifier validateBountyArrayIndex(uint _bountyId){\n    require(_bountyId < bounties.length);\n    _;\n  }\n\n  modifier onlyIssuer(uint _bountyId) {\n      require(msg.sender == bounties[_bountyId].issuer);\n      _;\n  }\n\n  modifier onlyFulfiller(uint _bountyId, uint _fulfillmentId) {\n      require(msg.sender == fulfillments[_bountyId][_fulfillmentId].fulfiller);\n      _;\n  }\n\n  modifier amountIsNotZero(uint _amount) {\n      require(_amount != 0);\n      _;\n  }\n\n  modifier transferredAmountEqualsValue(uint _bountyId, uint _amount) {\n      if (bounties[_bountyId].paysTokens){\n        require(msg.value == 0);\n        uint oldBalance = tokenContracts[_bountyId].balanceOf(this);\n        if (_amount != 0){\n          require(tokenContracts[_bountyId].transferFrom(msg.sender, this, _amount));\n        }\n        require((tokenContracts[_bountyId].balanceOf(this) - oldBalance) == _amount);\n\n      } else {\n        require((_amount * 1 wei) == msg.value);\n      }\n      _;\n  }\n\n  modifier isBeforeDeadline(uint _bountyId) {\n      require(now < bounties[_bountyId].deadline);\n      _;\n  }\n\n  modifier validateDeadline(uint _newDeadline) {\n      require(_newDeadline > now);\n      _;\n  }\n\n  modifier isAtStage(uint _bountyId, BountyStages _desiredStage) {\n      require(bounties[_bountyId].bountyStage == _desiredStage);\n      _;\n  }\n\n  modifier validateFulfillmentArrayIndex(uint _bountyId, uint _index) {\n      require(_index < fulfillments[_bountyId].length);\n      _;\n  }\n\n  modifier notYetAccepted(uint _bountyId, uint _fulfillmentId){\n      require(fulfillments[_bountyId][_fulfillmentId].accepted == false);\n      _;\n  }\n\n  /*\n   * Public functions\n   */\n\n\n  /// @dev Bounties(): instantiates\n  /// @param _tokenAddress the token contract\n  function Bounties(address _tokenAddress)\n      public\n  {\n      owner = msg.sender;\n      // address must be valid\n      require(_tokenAddress != address(0));\n      // instantiate deployed Ocean token contract\n      mToken = Token(_tokenAddress);\n  }\n\n  /// @dev issueBounty(): instantiates a new draft bounty\n  /// @param _issuer the address of the intended issuer of the bounty\n  /// @param _deadline the unix timestamp after which fulfillments will no longer be accepted\n  /// @param _data the requirements of the bounty\n  /// @param _fulfillmentAmount the amount of wei to be paid out for each successful fulfillment\n  /// @param _arbiter the address of the arbiter who can mediate claims\n  /// @param _paysTokens whether the bounty pays in tokens or in ETH\n  /// @param _tokenContract the address of the contract if _paysTokens is true\n  function issueBounty(\n      address _issuer,\n      uint _deadline,\n      string _data,\n      uint256 _fulfillmentAmount,\n      address _arbiter,\n      bool _paysTokens,\n      address _tokenContract\n  )\n      public\n      validateDeadline(_deadline)\n      amountIsNotZero(_fulfillmentAmount)\n      validateNotTooManyBounties\n      returns (uint)\n  {\n      bounties.push(Bounty(_issuer, _deadline, _data, _fulfillmentAmount, _arbiter, _paysTokens, BountyStages.Draft, 0));\n      if (_paysTokens){\n        tokenContracts[bounties.length - 1] = Token(_tokenContract);\n      }\n      emit BountyIssued(bounties.length - 1);\n      return (bounties.length - 1);\n  }\n\n  /// @dev issueAndActivateBounty(): instantiates a new draft bounty\n  /// @param _issuer the address of the intended issuer of the bounty\n  /// @param _deadline the unix timestamp after which fulfillments will no longer be accepted\n  /// @param _data the requirements of the bounty\n  /// @param _fulfillmentAmount the amount of wei to be paid out for each successful fulfillment\n  /// @param _arbiter the address of the arbiter who can mediate claims\n  /// @param _paysTokens whether the bounty pays in tokens or in ETH\n  /// @param _tokenContract the address of the contract if _paysTokens is true\n  /// @param _value the total number of tokens being deposited upon activation\n  function issueAndActivateBounty(\n      address _issuer,\n      uint _deadline,\n      string _data,\n      uint256 _fulfillmentAmount,\n      address _arbiter,\n      bool _paysTokens,\n      address _tokenContract,\n      uint256 _value\n  )\n      public\n      payable\n      validateDeadline(_deadline)\n      amountIsNotZero(_fulfillmentAmount)\n      validateNotTooManyBounties\n      returns (uint)\n  {\n      require (_value >= _fulfillmentAmount);\n      if (_paysTokens){\n        require(msg.value == 0);\n        tokenContracts[bounties.length] = Token(_tokenContract);\n        require(tokenContracts[bounties.length].transferFrom(msg.sender, this, _value));\n      } else {\n        require((_value * 1 wei) == msg.value);\n      }\n      bounties.push(Bounty(_issuer,\n                            _deadline,\n                            _data,\n                            _fulfillmentAmount,\n                            _arbiter,\n                            _paysTokens,\n                            BountyStages.Active,\n                            _value));\n      emit BountyIssued(bounties.length - 1);\n      emit ContributionAdded(bounties.length - 1, msg.sender, _value);\n      emit BountyActivated(bounties.length - 1, msg.sender);\n      return (bounties.length - 1);\n  }\n\n  modifier isNotDead(uint _bountyId) {\n      require(bounties[_bountyId].bountyStage != BountyStages.Dead);\n      _;\n  }\n\n  /// @dev contribute(): a function allowing anyone to contribute tokens to a\n  /// bounty, as long as it is still before its deadline. Shouldn't keep\n  /// them by accident (hence 'value').\n  /// @param _bountyId the index of the bounty\n  /// @param _value the amount being contributed in ether to prevent accidental deposits\n  /// @notice Please note you funds will be at the mercy of the issuer\n  ///  and can be drained at any moment. Be careful!\n  function contribute (uint _bountyId, uint _value)\n      payable\n      public\n      validateBountyArrayIndex(_bountyId)\n      isBeforeDeadline(_bountyId)\n      isNotDead(_bountyId)\n      amountIsNotZero(_value)\n      transferredAmountEqualsValue(_bountyId, _value)\n  {\n      bounties[_bountyId].balance += _value;\n\n      emit ContributionAdded(_bountyId, msg.sender, _value);\n  }\n\n  /// @notice Send funds to activate the bug bounty\n  /// @dev activateBounty(): activate a bounty so it may pay out\n  /// @param _bountyId the index of the bounty\n  /// @param _value the amount being contributed in ether to prevent\n  /// accidental deposits\n  function activateBounty(uint _bountyId, uint _value)\n      payable\n      public\n      validateBountyArrayIndex(_bountyId)\n      isBeforeDeadline(_bountyId)\n      onlyIssuer(_bountyId)\n      transferredAmountEqualsValue(_bountyId, _value)\n  {\n      bounties[_bountyId].balance += _value;\n      require (bounties[_bountyId].balance >= bounties[_bountyId].fulfillmentAmount);\n      transitionToState(_bountyId, BountyStages.Active);\n\n      emit ContributionAdded(_bountyId, msg.sender, _value);\n      emit BountyActivated(_bountyId, msg.sender);\n  }\n\n  modifier notIssuerOrArbiter(uint _bountyId) {\n      require(msg.sender != bounties[_bountyId].issuer && msg.sender != bounties[_bountyId].arbiter);\n      _;\n  }\n\n  /// @dev fulfillBounty(): submit a fulfillment for the given bounty\n  /// @param _bountyId the index of the bounty\n  /// @param _data the data artifacts representing the fulfillment of the bounty\n  function fulfillBounty(uint _bountyId, string _data)\n      public\n      validateBountyArrayIndex(_bountyId)\n      validateNotTooManyFulfillments(_bountyId)\n      isAtStage(_bountyId, BountyStages.Active)\n      isBeforeDeadline(_bountyId)\n      notIssuerOrArbiter(_bountyId)\n  {\n      fulfillments[_bountyId].push(Fulfillment(false, msg.sender, _data));\n\n      emit BountyFulfilled(_bountyId, msg.sender, (fulfillments[_bountyId].length - 1));\n  }\n\n  /// @dev updateFulfillment(): Submit updated data for a given fulfillment\n  /// @param _bountyId the index of the bounty\n  /// @param _fulfillmentId the index of the fulfillment\n  /// @param _data the new data being submitted\n  function updateFulfillment(uint _bountyId, uint _fulfillmentId, string _data)\n      public\n      validateBountyArrayIndex(_bountyId)\n      validateFulfillmentArrayIndex(_bountyId, _fulfillmentId)\n      onlyFulfiller(_bountyId, _fulfillmentId)\n      notYetAccepted(_bountyId, _fulfillmentId)\n  {\n      fulfillments[_bountyId][_fulfillmentId].data = _data;\n      emit FulfillmentUpdated(_bountyId, _fulfillmentId);\n  }\n\n  modifier onlyIssuerOrArbiter(uint _bountyId) {\n      require(msg.sender == bounties[_bountyId].issuer ||\n         (msg.sender == bounties[_bountyId].arbiter && bounties[_bountyId].arbiter != address(0)));\n      _;\n  }\n\n  modifier fulfillmentNotYetAccepted(uint _bountyId, uint _fulfillmentId) {\n      require(fulfillments[_bountyId][_fulfillmentId].accepted == false);\n      _;\n  }\n\n  modifier enoughFundsToPay(uint _bountyId) {\n      require(bounties[_bountyId].balance >= bounties[_bountyId].fulfillmentAmount);\n      _;\n  }\n\n  /// @dev acceptFulfillment(): accept a given fulfillment\n  /// @param _bountyId the index of the bounty\n  /// @param _fulfillmentId the index of the fulfillment being accepted\n  function acceptFulfillment(uint _bountyId, uint _fulfillmentId)\n      public\n      validateBountyArrayIndex(_bountyId)\n      validateFulfillmentArrayIndex(_bountyId, _fulfillmentId)\n      onlyIssuerOrArbiter(_bountyId)\n      isAtStage(_bountyId, BountyStages.Active)\n      fulfillmentNotYetAccepted(_bountyId, _fulfillmentId)\n      enoughFundsToPay(_bountyId)\n  {\n      fulfillments[_bountyId][_fulfillmentId].accepted = true;\n      numAccepted[_bountyId]++;\n      bounties[_bountyId].balance -= bounties[_bountyId].fulfillmentAmount;\n      if (bounties[_bountyId].paysTokens){\n        require(tokenContracts[_bountyId].transfer(fulfillments[_bountyId][_fulfillmentId].fulfiller, bounties[_bountyId].fulfillmentAmount));\n      } else {\n        fulfillments[_bountyId][_fulfillmentId].fulfiller.transfer(bounties[_bountyId].fulfillmentAmount);\n      }\n      emit FulfillmentAccepted(_bountyId, msg.sender, _fulfillmentId);\n  }\n\n  /// @dev killBounty(): drains the contract of it's remaining\n  /// funds, and moves the bounty into stage 3 (dead) since it was\n  /// either killed in draft stage, or never accepted any fulfillments\n  /// @param _bountyId the index of the bounty\n  function killBounty(uint _bountyId)\n      public\n      validateBountyArrayIndex(_bountyId)\n      onlyIssuer(_bountyId)\n  {\n      transitionToState(_bountyId, BountyStages.Dead);\n      uint oldBalance = bounties[_bountyId].balance;\n      bounties[_bountyId].balance = 0;\n      if (oldBalance > 0){\n        if (bounties[_bountyId].paysTokens){\n          require(tokenContracts[_bountyId].transfer(bounties[_bountyId].issuer, oldBalance));\n        } else {\n          bounties[_bountyId].issuer.transfer(oldBalance);\n        }\n      }\n      emit BountyKilled(_bountyId, msg.sender);\n  }\n\n  modifier newDeadlineIsValid(uint _bountyId, uint _newDeadline) {\n      require(_newDeadline > bounties[_bountyId].deadline);\n      _;\n  }\n\n  /// @dev extendDeadline(): allows the issuer to add more time to the\n  /// bounty, allowing it to continue accepting fulfillments\n  /// @param _bountyId the index of the bounty\n  /// @param _newDeadline the new deadline in timestamp format\n  function extendDeadline(uint _bountyId, uint _newDeadline)\n      public\n      validateBountyArrayIndex(_bountyId)\n      onlyIssuer(_bountyId)\n      newDeadlineIsValid(_bountyId, _newDeadline)\n  {\n      bounties[_bountyId].deadline = _newDeadline;\n\n      emit DeadlineExtended(_bountyId, _newDeadline);\n  }\n\n  /// @dev transferIssuer(): allows the issuer to transfer ownership of the\n  /// bounty to some new address\n  /// @param _bountyId the index of the bounty\n  /// @param _newIssuer the address of the new issuer\n  function transferIssuer(uint _bountyId, address _newIssuer)\n      public\n      validateBountyArrayIndex(_bountyId)\n      onlyIssuer(_bountyId)\n  {\n      bounties[_bountyId].issuer = _newIssuer;\n      emit IssuerTransferred(_bountyId, _newIssuer);\n  }\n\n\n  /// @dev changeBountyDeadline(): allows the issuer to change a bounty's deadline\n  /// @param _bountyId the index of the bounty\n  /// @param _newDeadline the new deadline for the bounty\n  function changeBountyDeadline(uint _bountyId, uint _newDeadline)\n      public\n      validateBountyArrayIndex(_bountyId)\n      onlyIssuer(_bountyId)\n      validateDeadline(_newDeadline)\n      isAtStage(_bountyId, BountyStages.Draft)\n  {\n      bounties[_bountyId].deadline = _newDeadline;\n      emit BountyChanged(_bountyId);\n  }\n\n  /// @dev changeData(): allows the issuer to change a bounty's data\n  /// @param _bountyId the index of the bounty\n  /// @param _newData the new requirements of the bounty\n  function changeBountyData(uint _bountyId, string _newData)\n      public\n      validateBountyArrayIndex(_bountyId)\n      onlyIssuer(_bountyId)\n      isAtStage(_bountyId, BountyStages.Draft)\n  {\n      bounties[_bountyId].data = _newData;\n      emit BountyChanged(_bountyId);\n  }\n\n  /// @dev changeBountyfulfillmentAmount(): allows the issuer to change a bounty's fulfillment amount\n  /// @param _bountyId the index of the bounty\n  /// @param _newFulfillmentAmount the new fulfillment amount\n  function changeBountyFulfillmentAmount(uint _bountyId, uint _newFulfillmentAmount)\n      public\n      validateBountyArrayIndex(_bountyId)\n      onlyIssuer(_bountyId)\n      isAtStage(_bountyId, BountyStages.Draft)\n  {\n      bounties[_bountyId].fulfillmentAmount = _newFulfillmentAmount;\n      emit BountyChanged(_bountyId);\n  }\n\n  /// @dev changeBountyArbiter(): allows the issuer to change a bounty's arbiter\n  /// @param _bountyId the index of the bounty\n  /// @param _newArbiter the new address of the arbiter\n  function changeBountyArbiter(uint _bountyId, address _newArbiter)\n      public\n      validateBountyArrayIndex(_bountyId)\n      onlyIssuer(_bountyId)\n      isAtStage(_bountyId, BountyStages.Draft)\n  {\n      bounties[_bountyId].arbiter = _newArbiter;\n      emit BountyChanged(_bountyId);\n  }\n\n  modifier newFulfillmentAmountIsIncrease(uint _bountyId, uint _newFulfillmentAmount) {\n      require(bounties[_bountyId].fulfillmentAmount < _newFulfillmentAmount);\n      _;\n  }\n\n  /// @dev increasePayout(): allows the issuer to increase a given fulfillment\n  /// amount in the active stage\n  /// @param _bountyId the index of the bounty\n  /// @param _newFulfillmentAmount the new fulfillment amount\n  /// @param _value the value of the additional deposit being added\n  function increasePayout(uint _bountyId, uint _newFulfillmentAmount, uint _value)\n      public\n      payable\n      validateBountyArrayIndex(_bountyId)\n      onlyIssuer(_bountyId)\n      newFulfillmentAmountIsIncrease(_bountyId, _newFulfillmentAmount)\n      transferredAmountEqualsValue(_bountyId, _value)\n  {\n      bounties[_bountyId].balance += _value;\n      require(bounties[_bountyId].balance >= _newFulfillmentAmount);\n      bounties[_bountyId].fulfillmentAmount = _newFulfillmentAmount;\n      emit PayoutIncreased(_bountyId, _newFulfillmentAmount);\n  }\n\n  /// @dev getFulfillment(): Returns the fulfillment at a given index\n  /// @param _bountyId the index of the bounty\n  /// @param _fulfillmentId the index of the fulfillment to return\n  /// @return Returns a tuple for the fulfillment\n  function getFulfillment(uint _bountyId, uint _fulfillmentId)\n      public\n      constant\n      validateBountyArrayIndex(_bountyId)\n      validateFulfillmentArrayIndex(_bountyId, _fulfillmentId)\n      returns (bool, address, string)\n  {\n      return (fulfillments[_bountyId][_fulfillmentId].accepted,\n              fulfillments[_bountyId][_fulfillmentId].fulfiller,\n              fulfillments[_bountyId][_fulfillmentId].data);\n  }\n\n  /// @dev getBounty(): Returns the details of the bounty\n  /// @param _bountyId the index of the bounty\n  /// @return Returns a tuple for the bounty\n  function getBounty(uint _bountyId)\n      public\n      constant\n      validateBountyArrayIndex(_bountyId)\n      returns (address, uint, uint, bool, uint, uint)\n  {\n      return (bounties[_bountyId].issuer,\n              bounties[_bountyId].deadline,\n              bounties[_bountyId].fulfillmentAmount,\n              bounties[_bountyId].paysTokens,\n              uint(bounties[_bountyId].bountyStage),\n              bounties[_bountyId].balance);\n  }\n\n  /// @dev getBountyArbiter(): Returns the arbiter of the bounty\n  /// @param _bountyId the index of the bounty\n  /// @return Returns an address for the arbiter of the bounty\n  function getBountyArbiter(uint _bountyId)\n      public\n      constant\n      validateBountyArrayIndex(_bountyId)\n      returns (address)\n  {\n      return (bounties[_bountyId].arbiter);\n  }\n\n  /// @dev getBountyData(): Returns the data of the bounty\n  /// @param _bountyId the index of the bounty\n  /// @return Returns a string for the bounty data\n  function getBountyData(uint _bountyId)\n      public\n      constant\n      validateBountyArrayIndex(_bountyId)\n      returns (string)\n  {\n      return (bounties[_bountyId].data);\n  }\n\n  /// @dev getBountyToken(): Returns the token contract of the bounty\n  /// @param _bountyId the index of the bounty\n  /// @return Returns an address for the token that the bounty uses\n  function getBountyToken(uint _bountyId)\n      public\n      constant\n      validateBountyArrayIndex(_bountyId)\n      returns (address)\n  {\n      return (tokenContracts[_bountyId]);\n  }\n\n  /// @dev getNumBounties() returns the number of bounties in the registry\n  /// @return Returns the number of bounties\n  function getNumBounties()\n      public\n      constant\n      returns (uint)\n  {\n      return bounties.length;\n  }\n\n  /// @dev getNumFulfillments() returns the number of fulfillments for a given milestone\n  /// @param _bountyId the index of the bounty\n  /// @return Returns the number of fulfillments\n  function getNumFulfillments(uint _bountyId)\n      public\n      constant\n      validateBountyArrayIndex(_bountyId)\n      returns (uint)\n  {\n      return fulfillments[_bountyId].length;\n  }\n\n  /*\n   * Internal functions\n   */\n\n  /// @dev transitionToState(): transitions the contract to the\n  /// state passed in the parameter `_newStage` given the\n  /// conditions stated in the body of the function\n  /// @param _bountyId the index of the bounty\n  /// @param _newStage the new stage to transition to\n  function transitionToState(uint _bountyId, BountyStages _newStage)\n      internal\n  {\n      bounties[_bountyId].bountyStage = _newStage;\n  }\n}\n",
  "sourcePath": "/Users/fancy/Documents/Ocean Protocol/research/9-token_distribution/erc20_token/contracts/Bounties.sol",
  "compiler": {
    "name": "solc",
    "version": "0.4.24+commit.e67f0147.Emscripten.clang"
  },
  "schemaVersion": "2.0.0",
  "updatedAt": "2018-07-30T22:40:40.436Z"
}