{
  "contractName": "Token",
  "abi": [
    {
      "constant": true,
      "inputs": [],
      "name": "name",
      "outputs": [
        {
          "name": "",
          "type": "string"
        }
      ],
      "payable": false,
      "stateMutability": "view",
      "type": "function"
    },
    {
      "constant": true,
      "inputs": [],
      "name": "totalSupply",
      "outputs": [
        {
          "name": "",
          "type": "uint256"
        }
      ],
      "payable": false,
      "stateMutability": "view",
      "type": "function"
    },
    {
      "constant": true,
      "inputs": [
        {
          "name": "",
          "type": "uint256"
        }
      ],
      "name": "mAirdrops",
      "outputs": [
        {
          "name": "account",
          "type": "address"
        },
        {
          "name": "amount",
          "type": "uint256"
        }
      ],
      "payable": false,
      "stateMutability": "view",
      "type": "function"
    },
    {
      "constant": true,
      "inputs": [],
      "name": "decimals",
      "outputs": [
        {
          "name": "",
          "type": "uint8"
        }
      ],
      "payable": false,
      "stateMutability": "view",
      "type": "function"
    },
    {
      "constant": true,
      "inputs": [
        {
          "name": "",
          "type": "address"
        }
      ],
      "name": "whiteList",
      "outputs": [
        {
          "name": "",
          "type": "bool"
        }
      ],
      "payable": false,
      "stateMutability": "view",
      "type": "function"
    },
    {
      "constant": true,
      "inputs": [],
      "name": "initialSupply",
      "outputs": [
        {
          "name": "",
          "type": "uint256"
        }
      ],
      "payable": false,
      "stateMutability": "view",
      "type": "function"
    },
    {
      "constant": false,
      "inputs": [
        {
          "name": "_spender",
          "type": "address"
        },
        {
          "name": "_subtractedValue",
          "type": "uint256"
        }
      ],
      "name": "decreaseApproval",
      "outputs": [
        {
          "name": "success",
          "type": "bool"
        }
      ],
      "payable": false,
      "stateMutability": "nonpayable",
      "type": "function"
    },
    {
      "constant": true,
      "inputs": [
        {
          "name": "_owner",
          "type": "address"
        }
      ],
      "name": "balanceOf",
      "outputs": [
        {
          "name": "balance",
          "type": "uint256"
        }
      ],
      "payable": false,
      "stateMutability": "view",
      "type": "function"
    },
    {
      "constant": true,
      "inputs": [],
      "name": "owner",
      "outputs": [
        {
          "name": "",
          "type": "address"
        }
      ],
      "payable": false,
      "stateMutability": "view",
      "type": "function"
    },
    {
      "constant": true,
      "inputs": [],
      "name": "symbol",
      "outputs": [
        {
          "name": "",
          "type": "string"
        }
      ],
      "payable": false,
      "stateMutability": "view",
      "type": "function"
    },
    {
      "constant": true,
      "inputs": [
        {
          "name": "",
          "type": "uint256"
        }
      ],
      "name": "addressLUT",
      "outputs": [
        {
          "name": "",
          "type": "address"
        }
      ],
      "payable": false,
      "stateMutability": "view",
      "type": "function"
    },
    {
      "constant": true,
      "inputs": [
        {
          "name": "",
          "type": "address"
        }
      ],
      "name": "frozenAccount",
      "outputs": [
        {
          "name": "",
          "type": "bool"
        }
      ],
      "payable": false,
      "stateMutability": "view",
      "type": "function"
    },
    {
      "constant": false,
      "inputs": [
        {
          "name": "_spender",
          "type": "address"
        },
        {
          "name": "_addedValue",
          "type": "uint256"
        }
      ],
      "name": "increaseApproval",
      "outputs": [
        {
          "name": "success",
          "type": "bool"
        }
      ],
      "payable": false,
      "stateMutability": "nonpayable",
      "type": "function"
    },
    {
      "inputs": [],
      "payable": false,
      "stateMutability": "nonpayable",
      "type": "constructor"
    },
    {
      "anonymous": false,
      "inputs": [
        {
          "indexed": false,
          "name": "target",
          "type": "address"
        },
        {
          "indexed": false,
          "name": "frozen",
          "type": "bool"
        }
      ],
      "name": "FrozenFunds",
      "type": "event"
    },
    {
      "anonymous": false,
      "inputs": [
        {
          "indexed": false,
          "name": "target",
          "type": "address"
        },
        {
          "indexed": false,
          "name": "isWhitelisted",
          "type": "bool"
        }
      ],
      "name": "WhiteListUpdated",
      "type": "event"
    },
    {
      "anonymous": false,
      "inputs": [
        {
          "indexed": true,
          "name": "owner",
          "type": "address"
        },
        {
          "indexed": true,
          "name": "spender",
          "type": "address"
        },
        {
          "indexed": false,
          "name": "value",
          "type": "uint256"
        }
      ],
      "name": "Approval",
      "type": "event"
    },
    {
      "anonymous": false,
      "inputs": [
        {
          "indexed": true,
          "name": "from",
          "type": "address"
        },
        {
          "indexed": true,
          "name": "to",
          "type": "address"
        },
        {
          "indexed": false,
          "name": "value",
          "type": "uint256"
        }
      ],
      "name": "Transfer",
      "type": "event"
    },
    {
      "constant": true,
      "inputs": [],
      "name": "getAccountList",
      "outputs": [
        {
          "name": "",
          "type": "address[]"
        }
      ],
      "payable": false,
      "stateMutability": "view",
      "type": "function"
    },
    {
      "constant": false,
      "inputs": [
        {
          "name": "user",
          "type": "address"
        },
        {
          "name": "amount",
          "type": "uint256"
        }
      ],
      "name": "airdropList",
      "outputs": [],
      "payable": false,
      "stateMutability": "nonpayable",
      "type": "function"
    },
    {
      "constant": false,
      "inputs": [],
      "name": "airdrop",
      "outputs": [],
      "payable": false,
      "stateMutability": "nonpayable",
      "type": "function"
    },
    {
      "constant": false,
      "inputs": [
        {
          "name": "target",
          "type": "address"
        },
        {
          "name": "isWhitelisted",
          "type": "bool"
        }
      ],
      "name": "setWhiteList",
      "outputs": [],
      "payable": false,
      "stateMutability": "nonpayable",
      "type": "function"
    },
    {
      "constant": false,
      "inputs": [
        {
          "name": "target",
          "type": "address"
        },
        {
          "name": "freeze",
          "type": "bool"
        }
      ],
      "name": "freezeAccount",
      "outputs": [],
      "payable": false,
      "stateMutability": "nonpayable",
      "type": "function"
    },
    {
      "constant": false,
      "inputs": [
        {
          "name": "_to",
          "type": "address"
        },
        {
          "name": "_value",
          "type": "uint256"
        }
      ],
      "name": "transfer",
      "outputs": [
        {
          "name": "",
          "type": "bool"
        }
      ],
      "payable": false,
      "stateMutability": "nonpayable",
      "type": "function"
    },
    {
      "constant": false,
      "inputs": [
        {
          "name": "_from",
          "type": "address"
        },
        {
          "name": "_to",
          "type": "address"
        },
        {
          "name": "_value",
          "type": "uint256"
        }
      ],
      "name": "transferFrom",
      "outputs": [
        {
          "name": "",
          "type": "bool"
        }
      ],
      "payable": false,
      "stateMutability": "nonpayable",
      "type": "function"
    },
    {
      "constant": false,
      "inputs": [
        {
          "name": "_spender",
          "type": "address"
        },
        {
          "name": "_value",
          "type": "uint256"
        }
      ],
      "name": "approve",
      "outputs": [
        {
          "name": "",
          "type": "bool"
        }
      ],
      "payable": false,
      "stateMutability": "nonpayable",
      "type": "function"
    },
    {
      "constant": true,
      "inputs": [
        {
          "name": "_owner",
          "type": "address"
        },
        {
          "name": "_spender",
          "type": "address"
        }
      ],
      "name": "allowance",
      "outputs": [
        {
          "name": "",
          "type": "uint256"
        }
      ],
      "payable": false,
      "stateMutability": "view",
      "type": "function"
    }
  ],
  "bytecode": "0x608060405234801561001057600080fd5b5060068054600160a060020a031916339081179091556353724e006007819055600091825260016020526040909120556110d28061004f6000396000f3006080604052600436106101275763ffffffff7c010000000000000000000000000000000000000000000000000000000060003504166306fdde03811461012c578063095ea7b3146101b657806318160ddd146101ee5780631d3785771461021557806323b872dd146102505780632843314e1461027a578063313ce567146102df578063372c12b11461030a578063378dc3dc1461032b5780633884d63514610340578063661884631461035757806370a082311461037b5780638d14e1271461039c5780638da5cb5b146103c257806395d89b41146103f3578063a278993214610408578063a9059cbb1461042c578063aca4901814610450578063b414d4b614610468578063d73dd62314610489578063dd62ed3e146104ad578063e724529c146104d4575b600080fd5b34801561013857600080fd5b506101416104fa565b6040805160208082528351818301528351919283929083019185019080838360005b8381101561017b578181015183820152602001610163565b50505050905090810190601f1680156101a85780820380516001836020036101000a031916815260200191505b509250505060405180910390f35b3480156101c257600080fd5b506101da600160a060020a0360043516602435610531565b604080519115158252519081900360200190f35b3480156101fa57600080fd5b50610203610546565b60408051918252519081900360200190f35b34801561022157600080fd5b5061022d60043561054c565b60408051600160a060020a03909316835260208301919091528051918290030190f35b34801561025c57600080fd5b506101da600160a060020a0360043581169060243516604435610582565b34801561028657600080fd5b5061028f6106de565b60408051602080825283518183015283519192839290830191858101910280838360005b838110156102cb5781810151838201526020016102b3565b505050509050019250505060405180910390f35b3480156102eb57600080fd5b506102f461077d565b6040805160ff9092168252519081900360200190f35b34801561031657600080fd5b506101da600160a060020a0360043516610782565b34801561033757600080fd5b50610203610797565b34801561034c57600080fd5b5061035561079f565b005b34801561036357600080fd5b506101da600160a060020a036004351660243561082c565b34801561038757600080fd5b50610203600160a060020a036004351661091c565b3480156103a857600080fd5b50610355600160a060020a03600435166024351515610937565b3480156103ce57600080fd5b506103d76109b2565b60408051600160a060020a039092168252519081900360200190f35b3480156103ff57600080fd5b506101416109c1565b34801561041457600080fd5b50610355600160a060020a03600435166024356109f8565b34801561043857600080fd5b506101da600160a060020a0360043516602435610ab1565b34801561045c57600080fd5b506103d7600435610c03565b34801561047457600080fd5b506101da600160a060020a0360043516610c2b565b34801561049557600080fd5b506101da600160a060020a0360043516602435610c40565b3480156104b957600080fd5b50610203600160a060020a0360043581169060243516610cd9565b3480156104e057600080fd5b50610355600160a060020a03600435166024351515610ce5565b60408051808201909152600a81527f50726f746f4f6365616e00000000000000000000000000000000000000000000602082015281565b600061053d8383610d60565b90505b92915050565b60075481565b600a80548290811061055a57fe5b600091825260209091206002909102018054600190910154600160a060020a03909116915082565b6000600160a060020a038316151561059957600080fd5b600160a060020a03841660009081526008602052604090205460ff16156105bf57600080fd5b600b80546001810182556000919091527f0175b7a638427703f0dbe7bb9bbf987a2551717b34e79f33b5b1008d1fa01db901805473ffffffffffffffffffffffffffffffffffffffff1916600160a060020a038516179055610622848484610df7565b151561062d57600080fd5b600160a060020a03831660009081526008602052604090205460ff1615801561066f5750600160a060020a03831660009081526009602052604090205460ff16155b156106d457600160a060020a038316600081815260086020908152604091829020805460ff1916600190811790915582519384529083015280517f48335238b4855f35377ed80f164e8c6f3c366e54ac00b96a6402d4a9814a03a59281900390910190a15b5060019392505050565b6060806000600b80549050604051908082528060200260200182016040528015610712578160200160208202803883390190505b509150600090505b600b5481101561077757600b80548290811061073257fe5b6000918252602090912001548251600160a060020a039091169083908390811061075857fe5b600160a060020a0390921660209283029091019091015260010161071a565b50919050565b600081565b60096020526000908152604090205460ff1681565b6353724e0081565b6006546000908190600160a060020a031633146107bb57600080fd5b5050600a5460005b818110156108285761081f600a828154811015156107dd57fe5b6000918252602090912060029091020154600a8054600160a060020a03909216918490811061080857fe5b906000526020600020906002020160010154610ab1565b506001016107c3565b5050565b336000908152600260209081526040808320600160a060020a03861684529091528120548083111561088157336000908152600260209081526040808320600160a060020a03881684529091528120556108b6565b610891818463ffffffff610f7016565b336000908152600260209081526040808320600160a060020a03891684529091529020555b336000818152600260209081526040808320600160a060020a0389168085529083529281902054815190815290519293927f8c5be1e5ebec7d5bd14f71427d1e84f3dd0314c0f7b2291e5b200ac8c7c3b925929181900390910190a35060019392505050565b600160a060020a031660009081526001602052604090205490565b600654600160a060020a0316331461094e57600080fd5b600160a060020a038216600081815260096020908152604091829020805460ff191685151590811790915582519384529083015280517fb1288e9f7bae3599e10819d5553febea48e11a6f8f585b32c8abad397dd2627e9281900390910190a15050565b600654600160a060020a031681565b60408051808201909152600381527f50524f0000000000000000000000000000000000000000000000000000000000602082015281565b600654600160a060020a03163314610a0f57600080fd5b60408051808201909152600160a060020a03928316815260208101918252600a805460018101825560009190915290517fc65a7bb8d6351c1cf70c95a316cc6a92839c986682d98bc35f958f4883f9d2a86002909202918201805473ffffffffffffffffffffffffffffffffffffffff19169190941617909255517fc65a7bb8d6351c1cf70c95a316cc6a92839c986682d98bc35f958f4883f9d2a990910155565b3360009081526008602052604081205460ff1615610ad157506000610540565b600160a060020a0383161515610ae657600080fd5b600b80546001810182556000919091527f0175b7a638427703f0dbe7bb9bbf987a2551717b34e79f33b5b1008d1fa01db901805473ffffffffffffffffffffffffffffffffffffffff1916600160a060020a038516179055610b488383610f82565b1515610b5357600080fd5b600160a060020a03831660009081526008602052604090205460ff16158015610b955750600160a060020a03831660009081526009602052604090205460ff16155b15610bfa57600160a060020a038316600081815260086020908152604091829020805460ff1916600190811790915582519384529083015280517f48335238b4855f35377ed80f164e8c6f3c366e54ac00b96a6402d4a9814a03a59281900390910190a15b50600192915050565b600b805482908110610c1157fe5b600091825260209091200154600160a060020a0316905081565b60086020526000908152604090205460ff1681565b336000908152600260209081526040808320600160a060020a0386168452909152812054610c74908363ffffffff61106516565b336000818152600260209081526040808320600160a060020a0389168085529083529281902085905580519485525191937f8c5be1e5ebec7d5bd14f71427d1e84f3dd0314c0f7b2291e5b200ac8c7c3b925929081900390910190a350600192915050565b600061053d838361107b565b600654600160a060020a03163314610cfc57600080fd5b600160a060020a038216600081815260086020908152604091829020805460ff191685151590811790915582519384529083015280517f48335238b4855f35377ed80f164e8c6f3c366e54ac00b96a6402d4a9814a03a59281900390910190a15050565b6003805473ffffffffffffffffffffffffffffffffffffffff199081163390811790925560048054600160a060020a038616921682179055600583905560008281526002602090815260408083208484528252808320869055805186815290519294927f8c5be1e5ebec7d5bd14f71427d1e84f3dd0314c0f7b2291e5b200ac8c7c3b925929181900390910190a350600192915050565b6000600160a060020a0383161515610e0e57600080fd5b600160a060020a038416600090815260016020526040902054821115610e3357600080fd5b600160a060020a0384166000908152600260209081526040808320338452909152902054821115610e6357600080fd5b600160a060020a038416600090815260016020526040902054610e8c908363ffffffff610f7016565b600160a060020a038086166000908152600160205260408082209390935590851681522054610ec1908363ffffffff61106516565b600160a060020a038085166000908152600160209081526040808320949094559187168152600282528281203382529091522054610f05908363ffffffff610f7016565b600160a060020a03808616600081815260026020908152604080832033845282529182902094909455805186815290519287169391927fddf252ad1be2c89b69c2b068fc378daa952ba7f163c4a11628f55a4df523b3ef929181900390910190a35060019392505050565b600082821115610f7c57fe5b50900390565b6000600160a060020a0383161515610f9957600080fd5b33600090815260016020526040902054821115610fb557600080fd5b33600090815260016020526040902054610fd5908363ffffffff610f7016565b3360009081526001602052604080822092909255600160a060020a03851681522054611007908363ffffffff61106516565b600160a060020a0384166000818152600160209081526040918290209390935580518581529051919233927fddf252ad1be2c89b69c2b068fc378daa952ba7f163c4a11628f55a4df523b3ef9281900390910190a350600192915050565b60008282018381101561107457fe5b9392505050565b600160a060020a039182166000908152600260209081526040808320939094168252919091522054905600a165627a7a723058202258a5551ea2a34f7974102fbb17d6484cfba6f030b1b454b2da9cb1717e05b60029",
  "source": "pragma solidity ^0.4.24;\n\nimport './zeppelin/StandardToken.sol';\n\ncontract Token is StandardToken {\n    address public owner;\n\n    string public constant name = 'ProtoOcean';                         // Set the token name for display\n    string public constant symbol = 'PRO';                              // Set the token symbol for display\n\n    // SUPPLY\n    uint8 public constant decimals = 0;                               // Set the number of decimals for display\n    uint256 public constant initialSupply = 1400000000;                 // OceanToken total supply\n\n    // all balance\n    uint256 public totalSupply;\n\n    // mapping\n    mapping (address => bool) public frozenAccount;\n    mapping (address => bool) public whiteList;\n\n    struct Airdrop {\n      address account;\n      uint256 amount;\n    }\n    Airdrop[] public mAirdrops;\n\n    // full list of receiver accounts\n    address[] public addressLUT;\n\n    // events\n    event FrozenFunds(address target, bool frozen);\n    event WhiteListUpdated(address target, bool isWhitelisted);\n\n    // modifier\n    modifier onlyOwner() {\n        require(msg.sender == owner);\n        _;\n    }\n\n    // constructor function\n    constructor() public {\n        // set _owner\n        owner = msg.sender;\n        // total supply\n        totalSupply = initialSupply;\n        // owner of token contract has all tokens\n        balances[msg.sender] = initialSupply;\n    }\n\n    // returns full list of receiver addresses\n    function getAccountList() public view returns (address[]) {\n        address[] memory v = new address[](addressLUT.length);\n        for (uint256 i=0; i < addressLUT.length; i++) {\n            v[i] = addressLUT[i];\n        }\n        return v;\n    }\n\n    // airdrops tokens to accounts\n    function airdropList(address user, uint256 amount) public onlyOwner {\n        mAirdrops.push(Airdrop(user, amount));\n    }\n\n    function airdrop() public onlyOwner {\n        uint256 arrayLength = mAirdrops.length;\n        for (uint256 i=0; i < arrayLength; i++) {\n            transfer(mAirdrops[i].account, mAirdrops[i].amount);\n        }\n    }\n\n    // add acount to whiteList - true means no-freeze\n    function setWhiteList(address target, bool isWhitelisted) public onlyOwner {\n        whiteList[target] = isWhitelisted;\n        emit WhiteListUpdated(target, isWhitelisted);\n    }\n\n    // freeze accounts\n    function freezeAccount(address target, bool freeze) public onlyOwner {\n        frozenAccount[target] = freeze;\n        emit FrozenFunds(target, freeze);\n    }\n\n    /**\n    * @dev Transfer token for a specified address when not paused\n    * @param _to The address to transfer to.\n    * @param _value The amount to be transferred.\n    */\n    function transfer(address _to, uint256 _value) public returns (bool) {\n        // source account shall not be freezed\n        if(frozenAccount[msg.sender]){\n            return false;\n        }\n        require(_to != address(0));\n        // record the receiver address into list\n        addressLUT.push(_to);\n        // transfer fund first if sender is not frozen\n        require(super.transfer(_to, _value));\n        // automatically freeze receiver that is not whitelisted\n        if (frozenAccount[_to] == false && whiteList[_to] == false){\n            frozenAccount[_to] = true;\n            emit FrozenFunds(_to, true);\n        }\n        return true;\n    }\n\n    /**\n    * @dev Transfer tokens from one address to another when not paused\n    * @param _from address The address which you want to send tokens from\n    * @param _to address The address which you want to transfer to\n    * @param _value uint256 the amount of tokens to be transferred\n    */\n    function transferFrom(address _from, address _to, uint256 _value) public returns (bool) {\n        require(_to != address(0));\n        // source account shall not be freezed\n        require(!frozenAccount[_from]);\n        addressLUT.push(_to);\n        // transfer fund\n        require(super.transferFrom(_from, _to, _value));\n        // automatically freeze account\n        if (frozenAccount[_to] == false && whiteList[_to] == false){\n            frozenAccount[_to] = true;\n            emit FrozenFunds(_to, true);\n        }\n        return true;\n    }\n\n    /**\n    * @dev Aprove the passed address to spend the specified amount of tokens on behalf of msg.sender when not paused.\n    * @param _spender The address which will spend the funds.\n    * @param _value The amount of tokens to be spent.\n    */\n    function approve(address _spender, uint256 _value) public returns (bool) {\n        return super.approve(_spender, _value);\n    }\n\n    function allowance(address _owner, address _spender) public constant returns (uint256) { // solium-disable-line no-constant\n        return super.allowance(_owner,_spender);\n    }\n\n}\n",
  "sourcePath": "/Users/fancy/Documents/Ocean Protocol/research/9-token_distribution/erc20_token/contracts/Token.sol",
  "compiler": {
    "name": "solc",
    "version": "0.4.24+commit.e67f0147.Emscripten.clang"
  },
  "schemaVersion": "2.0.0",
  "updatedAt": "2018-08-02T00:46:23.291Z"
}