{
  "contractName": "Token",
  "abi": [
    {
      "constant": true,
      "inputs": [],
      "name": "name",
      "outputs": [
        {
          "name": "",
          "type": "string"
        }
      ],
      "payable": false,
      "stateMutability": "view",
      "type": "function"
    },
    {
      "constant": true,
      "inputs": [],
      "name": "totalSupply",
      "outputs": [
        {
          "name": "",
          "type": "uint256"
        }
      ],
      "payable": false,
      "stateMutability": "view",
      "type": "function"
    },
    {
      "constant": true,
      "inputs": [
        {
          "name": "",
          "type": "uint256"
        }
      ],
      "name": "mAirdrops",
      "outputs": [
        {
          "name": "account",
          "type": "address"
        },
        {
          "name": "amount",
          "type": "uint256"
        }
      ],
      "payable": false,
      "stateMutability": "view",
      "type": "function"
    },
    {
      "constant": true,
      "inputs": [],
      "name": "decimals",
      "outputs": [
        {
          "name": "",
          "type": "uint8"
        }
      ],
      "payable": false,
      "stateMutability": "view",
      "type": "function"
    },
    {
      "constant": true,
      "inputs": [],
      "name": "initialSupply",
      "outputs": [
        {
          "name": "",
          "type": "uint256"
        }
      ],
      "payable": false,
      "stateMutability": "view",
      "type": "function"
    },
    {
      "constant": false,
      "inputs": [
        {
          "name": "_spender",
          "type": "address"
        },
        {
          "name": "_subtractedValue",
          "type": "uint256"
        }
      ],
      "name": "decreaseApproval",
      "outputs": [
        {
          "name": "",
          "type": "bool"
        }
      ],
      "payable": false,
      "stateMutability": "nonpayable",
      "type": "function"
    },
    {
      "constant": true,
      "inputs": [
        {
          "name": "_owner",
          "type": "address"
        }
      ],
      "name": "balanceOf",
      "outputs": [
        {
          "name": "",
          "type": "uint256"
        }
      ],
      "payable": false,
      "stateMutability": "view",
      "type": "function"
    },
    {
      "constant": true,
      "inputs": [],
      "name": "owner",
      "outputs": [
        {
          "name": "",
          "type": "address"
        }
      ],
      "payable": false,
      "stateMutability": "view",
      "type": "function"
    },
    {
      "constant": true,
      "inputs": [],
      "name": "symbol",
      "outputs": [
        {
          "name": "",
          "type": "string"
        }
      ],
      "payable": false,
      "stateMutability": "view",
      "type": "function"
    },
    {
      "constant": true,
      "inputs": [
        {
          "name": "",
          "type": "uint256"
        }
      ],
      "name": "addressLUT",
      "outputs": [
        {
          "name": "",
          "type": "address"
        }
      ],
      "payable": false,
      "stateMutability": "view",
      "type": "function"
    },
    {
      "constant": true,
      "inputs": [
        {
          "name": "",
          "type": "address"
        }
      ],
      "name": "frozenAccount",
      "outputs": [
        {
          "name": "",
          "type": "bool"
        }
      ],
      "payable": false,
      "stateMutability": "view",
      "type": "function"
    },
    {
      "constant": false,
      "inputs": [
        {
          "name": "_spender",
          "type": "address"
        },
        {
          "name": "_addedValue",
          "type": "uint256"
        }
      ],
      "name": "increaseApproval",
      "outputs": [
        {
          "name": "",
          "type": "bool"
        }
      ],
      "payable": false,
      "stateMutability": "nonpayable",
      "type": "function"
    },
    {
      "inputs": [],
      "payable": false,
      "stateMutability": "nonpayable",
      "type": "constructor"
    },
    {
      "anonymous": false,
      "inputs": [
        {
          "indexed": false,
          "name": "target",
          "type": "address"
        },
        {
          "indexed": false,
          "name": "frozen",
          "type": "bool"
        }
      ],
      "name": "FrozenFunds",
      "type": "event"
    },
    {
      "anonymous": false,
      "inputs": [
        {
          "indexed": true,
          "name": "owner",
          "type": "address"
        },
        {
          "indexed": true,
          "name": "spender",
          "type": "address"
        },
        {
          "indexed": false,
          "name": "value",
          "type": "uint256"
        }
      ],
      "name": "Approval",
      "type": "event"
    },
    {
      "anonymous": false,
      "inputs": [
        {
          "indexed": true,
          "name": "from",
          "type": "address"
        },
        {
          "indexed": true,
          "name": "to",
          "type": "address"
        },
        {
          "indexed": false,
          "name": "value",
          "type": "uint256"
        }
      ],
      "name": "Transfer",
      "type": "event"
    },
    {
      "constant": true,
      "inputs": [],
      "name": "getAccountList",
      "outputs": [
        {
          "name": "",
          "type": "address[]"
        }
      ],
      "payable": false,
      "stateMutability": "view",
      "type": "function"
    },
    {
      "constant": false,
      "inputs": [
        {
          "name": "user",
          "type": "address"
        },
        {
          "name": "amount",
          "type": "uint256"
        }
      ],
      "name": "airdropList",
      "outputs": [],
      "payable": false,
      "stateMutability": "nonpayable",
      "type": "function"
    },
    {
      "constant": false,
      "inputs": [],
      "name": "airdrop",
      "outputs": [],
      "payable": false,
      "stateMutability": "nonpayable",
      "type": "function"
    },
    {
      "constant": false,
      "inputs": [
        {
          "name": "target",
          "type": "address"
        },
        {
          "name": "freeze",
          "type": "bool"
        }
      ],
      "name": "freezeAccount",
      "outputs": [],
      "payable": false,
      "stateMutability": "nonpayable",
      "type": "function"
    },
    {
      "constant": false,
      "inputs": [
        {
          "name": "_to",
          "type": "address"
        },
        {
          "name": "_value",
          "type": "uint256"
        }
      ],
      "name": "transfer",
      "outputs": [
        {
          "name": "",
          "type": "bool"
        }
      ],
      "payable": false,
      "stateMutability": "nonpayable",
      "type": "function"
    },
    {
      "constant": false,
      "inputs": [
        {
          "name": "_from",
          "type": "address"
        },
        {
          "name": "_to",
          "type": "address"
        },
        {
          "name": "_value",
          "type": "uint256"
        }
      ],
      "name": "transferFrom",
      "outputs": [
        {
          "name": "",
          "type": "bool"
        }
      ],
      "payable": false,
      "stateMutability": "nonpayable",
      "type": "function"
    },
    {
      "constant": false,
      "inputs": [
        {
          "name": "_spender",
          "type": "address"
        },
        {
          "name": "_value",
          "type": "uint256"
        }
      ],
      "name": "approve",
      "outputs": [
        {
          "name": "",
          "type": "bool"
        }
      ],
      "payable": false,
      "stateMutability": "nonpayable",
      "type": "function"
    },
    {
      "constant": true,
      "inputs": [
        {
          "name": "_owner",
          "type": "address"
        },
        {
          "name": "_spender",
          "type": "address"
        }
      ],
      "name": "allowance",
      "outputs": [
        {
          "name": "",
          "type": "uint256"
        }
      ],
      "payable": false,
      "stateMutability": "view",
      "type": "function"
    }
  ],
  "bytecode": "0x608060405234801561001057600080fd5b5060038054600160a060020a0319163390811790915562d59f80600481905560009182526020829052604090912055610e378061004e6000396000f3006080604052600436106101115763ffffffff7c010000000000000000000000000000000000000000000000000000000060003504166306fdde038114610116578063095ea7b3146101a057806318160ddd146101d85780631d378577146101ff57806323b872dd1461023a5780632843314e14610264578063313ce567146102c9578063378dc3dc146102f45780633884d63514610309578063661884631461032057806370a08231146103445780638da5cb5b1461036557806395d89b4114610396578063a2789932146103ab578063a9059cbb146103cf578063aca49018146103f3578063b414d4b61461040b578063d73dd6231461042c578063dd62ed3e14610450578063e724529c14610477575b600080fd5b34801561012257600080fd5b5061012b61049d565b6040805160208082528351818301528351919283929083019185019080838360005b8381101561016557818101518382015260200161014d565b50505050905090810190601f1680156101925780820380516001836020036101000a031916815260200191505b509250505060405180910390f35b3480156101ac57600080fd5b506101c4600160a060020a03600435166024356104d4565b604080519115158252519081900360200190f35b3480156101e457600080fd5b506101ed6104e9565b60408051918252519081900360200190f35b34801561020b57600080fd5b506102176004356104ef565b60408051600160a060020a03909316835260208301919091528051918290030190f35b34801561024657600080fd5b506101c4600160a060020a0360043581169060243516604435610525565b34801561027057600080fd5b506102796105cd565b60408051602080825283518183015283519192839290830191858101910280838360005b838110156102b557818101518382015260200161029d565b505050509050019250505060405180910390f35b3480156102d557600080fd5b506102de61066c565b6040805160ff9092168252519081900360200190f35b34801561030057600080fd5b506101ed610671565b34801561031557600080fd5b5061031e610678565b005b34801561032c57600080fd5b506101c4600160a060020a0360043516602435610705565b34801561035057600080fd5b506101ed600160a060020a03600435166107f5565b34801561037157600080fd5b5061037a610810565b60408051600160a060020a039092168252519081900360200190f35b3480156103a257600080fd5b5061012b61081f565b3480156103b757600080fd5b5061031e600160a060020a0360043516602435610856565b3480156103db57600080fd5b506101c4600160a060020a036004351660243561090f565b3480156103ff57600080fd5b5061037a6004356109a6565b34801561041757600080fd5b506101c4600160a060020a03600435166109ce565b34801561043857600080fd5b506101c4600160a060020a03600435166024356109e3565b34801561045c57600080fd5b506101ed600160a060020a0360043581169060243516610a7c565b34801561048357600080fd5b5061031e600160a060020a03600435166024351515610a88565b60408051808201909152600b81527f667265657a65546f6b656e000000000000000000000000000000000000000000602082015281565b60006104e08383610b03565b90505b92915050565b60045481565b60068054829081106104fd57fe5b600091825260209091206002909102018054600190910154600160a060020a03909116915082565b6000600160a060020a038316151561053c57600080fd5b600160a060020a03841660009081526005602052604090205460ff161561056257600080fd5b600780546001810182556000919091527fa66cc928b5edb82af9bd49922954155ab7b0942694bea4ce44661d9a8736c68801805473ffffffffffffffffffffffffffffffffffffffff1916600160a060020a0385161790556105c5848484610b69565b949350505050565b6060806000600780549050604051908082528060200260200182016040528015610601578160200160208202803883390190505b509150600090505b60075481101561066657600780548290811061062157fe5b6000918252602090912001548251600160a060020a039091169083908390811061064757fe5b600160a060020a03909216602092830290910190910152600101610609565b50919050565b600281565b62d59f8081565b6003546000908190600160a060020a0316331461069457600080fd5b505060065460005b81811015610701576106f86006828154811015156106b657fe5b600091825260209091206002909102015460068054600160a060020a0390921691849081106106e157fe5b90600052602060002090600202016001015461090f565b5060010161069c565b5050565b336000908152600260209081526040808320600160a060020a03861684529091528120548083111561075a57336000908152600260209081526040808320600160a060020a038816845290915281205561078f565b61076a818463ffffffff610ce016565b336000908152600260209081526040808320600160a060020a03891684529091529020555b336000818152600260209081526040808320600160a060020a0389168085529083529281902054815190815290519293927f8c5be1e5ebec7d5bd14f71427d1e84f3dd0314c0f7b2291e5b200ac8c7c3b925929181900390910190a35060019392505050565b600160a060020a031660009081526020819052604090205490565b600354600160a060020a031681565b60408051808201909152600281527f4654000000000000000000000000000000000000000000000000000000000000602082015281565b600354600160a060020a0316331461086d57600080fd5b60408051808201909152600160a060020a039283168152602081019182526006805460018101825560009190915290517ff652222313e28459528d920b65115c16c04f3efc82aaedc97be59f3f377c0d3f6002909202918201805473ffffffffffffffffffffffffffffffffffffffff19169190941617909255517ff652222313e28459528d920b65115c16c04f3efc82aaedc97be59f3f377c0d4090910155565b3360009081526005602052604081205460ff161561092f575060006104e3565b600160a060020a038316151561094457600080fd5b600780546001810182556000919091527fa66cc928b5edb82af9bd49922954155ab7b0942694bea4ce44661d9a8736c68801805473ffffffffffffffffffffffffffffffffffffffff1916600160a060020a0385161790556104e08383610cf2565b60078054829081106109b457fe5b600091825260209091200154600160a060020a0316905081565b60056020526000908152604090205460ff1681565b336000908152600260209081526040808320600160a060020a0386168452909152812054610a17908363ffffffff610dd316565b336000818152600260209081526040808320600160a060020a0389168085529083529281902085905580519485525191937f8c5be1e5ebec7d5bd14f71427d1e84f3dd0314c0f7b2291e5b200ac8c7c3b925929081900390910190a350600192915050565b60006104e08383610de0565b600354600160a060020a03163314610a9f57600080fd5b600160a060020a038216600081815260056020908152604091829020805460ff191685151590811790915582519384529083015280517f48335238b4855f35377ed80f164e8c6f3c366e54ac00b96a6402d4a9814a03a59281900390910190a15050565b336000818152600260209081526040808320600160a060020a038716808552908352818420869055815186815291519394909390927f8c5be1e5ebec7d5bd14f71427d1e84f3dd0314c0f7b2291e5b200ac8c7c3b925928290030190a350600192915050565b6000600160a060020a0383161515610b8057600080fd5b600160a060020a038416600090815260208190526040902054821115610ba557600080fd5b600160a060020a0384166000908152600260209081526040808320338452909152902054821115610bd557600080fd5b600160a060020a038416600090815260208190526040902054610bfe908363ffffffff610ce016565b600160a060020a038086166000908152602081905260408082209390935590851681522054610c33908363ffffffff610dd316565b600160a060020a03808516600090815260208181526040808320949094559187168152600282528281203382529091522054610c75908363ffffffff610ce016565b600160a060020a03808616600081815260026020908152604080832033845282529182902094909455805186815290519287169391927fddf252ad1be2c89b69c2b068fc378daa952ba7f163c4a11628f55a4df523b3ef929181900390910190a35060019392505050565b600082821115610cec57fe5b50900390565b6000600160a060020a0383161515610d0957600080fd5b33600090815260208190526040902054821115610d2557600080fd5b33600090815260208190526040902054610d45908363ffffffff610ce016565b3360009081526020819052604080822092909255600160a060020a03851681522054610d77908363ffffffff610dd316565b600160a060020a038416600081815260208181526040918290209390935580518581529051919233927fddf252ad1be2c89b69c2b068fc378daa952ba7f163c4a11628f55a4df523b3ef9281900390910190a350600192915050565b818101828110156104e357fe5b600160a060020a039182166000908152600260209081526040808320939094168252919091522054905600a165627a7a723058200bd578de1a0916785ba5ad0b6eaaf3b305d211abd091f0927086cebb5243637d0029",
  "source": "pragma solidity ^0.4.24;\n\nimport 'openzeppelin-solidity/contracts/token/ERC20/StandardToken.sol';\n\ncontract Token is StandardToken {\n    address public owner;\n\n    string public constant name = 'freezeToken';                         // Set the token name for display\n    string public constant symbol = 'FT';                              // Set the token symbol for display\n\n    // SUPPLY\n    uint8 public constant decimals = 2;                           // Set the number of decimals for display\n    uint256 public constant initialSupply = 14000000;                 // OceanToken total supply\n\n    // all balance\n    uint256 public totalSupply;\n\n    // mapping\n    mapping (address => bool) public frozenAccount;\n\n    struct Airdrop {\n      address account;\n      uint256 amount;\n    }\n    Airdrop[] public mAirdrops;\n\n    // full list of receiver accounts\n    address[] public addressLUT;\n\n    // events\n    event FrozenFunds(address target, bool frozen);\n\n    // modifier\n    modifier onlyOwner() {\n        require(msg.sender == owner);\n        _;\n    }\n\n    // constructor function\n    function Token() public {\n        // set _owner\n        owner = msg.sender;\n        // total supply\n        totalSupply = initialSupply;\n        // owner of token contract has all tokens\n        balances[msg.sender] = initialSupply;\n    }\n\n    // returns full list of receiver addresses\n    function getAccountList() public view returns (address[]) {\n        address[] memory v = new address[](addressLUT.length);\n        for (uint256 i=0; i < addressLUT.length; i++) {\n            v[i] = addressLUT[i];\n        }\n        return v;\n    }\n\n\n    // airdrops tokens to accounts\n    function airdropList(address user, uint256 amount) public onlyOwner {\n        mAirdrops.push(Airdrop(user, amount));\n    }\n\n    function airdrop() public onlyOwner {\n        uint256 arrayLength = mAirdrops.length;\n        for (uint256 i=0; i < arrayLength; i++) {\n            transfer(mAirdrops[i].account, mAirdrops[i].amount);\n        }\n    }\n\n\n    // freeze accounts\n    function freezeAccount(address target, bool freeze) public onlyOwner {\n        frozenAccount[target] = freeze;\n        emit FrozenFunds(target, freeze);\n    }\n\n    /**\n    * @dev Transfer token for a specified address when not paused\n    * @param _to The address to transfer to.\n    * @param _value The amount to be transferred.\n    */\n    function transfer(address _to, uint256 _value) public returns (bool) {\n        // source account shall not be freezed\n        if(frozenAccount[msg.sender]){\n            return false;\n        }\n        require(_to != address(0));\n        addressLUT.push(_to);\n        return super.transfer(_to, _value);\n    }\n\n    /**\n    * @dev Transfer tokens from one address to another when not paused\n    * @param _from address The address which you want to send tokens from\n    * @param _to address The address which you want to transfer to\n    * @param _value uint256 the amount of tokens to be transferred\n    */\n    function transferFrom(address _from, address _to, uint256 _value) public returns (bool) {\n        require(_to != address(0));\n        // source account shall not be freezed\n        require(!frozenAccount[_from]);\n        addressLUT.push(_to);\n        return super.transferFrom(_from, _to, _value);\n    }\n\n    /**\n    * @dev Aprove the passed address to spend the specified amount of tokens on behalf of msg.sender when not paused.\n    * @param _spender The address which will spend the funds.\n    * @param _value The amount of tokens to be spent.\n    */\n    function approve(address _spender, uint256 _value) public returns (bool) {\n        return super.approve(_spender, _value);\n    }\n\n    function allowance(address _owner, address _spender) public constant returns (uint256) { // solium-disable-line no-constant\n        return super.allowance(_owner,_spender);\n    }\n\n}\n",
  "sourcePath": "/Users/fancy/Documents/Ocean Protocol/research/9-token_distribution/erc20_token/contracts/Token.sol",
  "compiler": {
    "name": "solc",
    "version": "0.4.24+commit.e67f0147.Emscripten.clang"
  },
  "schemaVersion": "2.0.0",
  "updatedAt": "2018-07-30T22:57:07.827Z"
}