{
  "contractName": "Token",
  "abi": [
    {
      "constant": true,
      "inputs": [],
      "name": "name",
      "outputs": [
        {
          "name": "",
          "type": "string"
        }
      ],
      "payable": false,
      "stateMutability": "view",
      "type": "function"
    },
    {
      "constant": true,
      "inputs": [],
      "name": "totalSupply",
      "outputs": [
        {
          "name": "",
          "type": "uint256"
        }
      ],
      "payable": false,
      "stateMutability": "view",
      "type": "function"
    },
    {
      "constant": true,
      "inputs": [],
      "name": "decimals",
      "outputs": [
        {
          "name": "",
          "type": "uint8"
        }
      ],
      "payable": false,
      "stateMutability": "view",
      "type": "function"
    },
    {
      "constant": true,
      "inputs": [
        {
          "name": "",
          "type": "address"
        }
      ],
      "name": "whiteList",
      "outputs": [
        {
          "name": "",
          "type": "bool"
        }
      ],
      "payable": false,
      "stateMutability": "view",
      "type": "function"
    },
    {
      "constant": true,
      "inputs": [],
      "name": "initialSupply",
      "outputs": [
        {
          "name": "",
          "type": "uint256"
        }
      ],
      "payable": false,
      "stateMutability": "view",
      "type": "function"
    },
    {
      "constant": false,
      "inputs": [
        {
          "name": "_spender",
          "type": "address"
        },
        {
          "name": "_subtractedValue",
          "type": "uint256"
        }
      ],
      "name": "decreaseApproval",
      "outputs": [
        {
          "name": "success",
          "type": "bool"
        }
      ],
      "payable": false,
      "stateMutability": "nonpayable",
      "type": "function"
    },
    {
      "constant": true,
      "inputs": [
        {
          "name": "_owner",
          "type": "address"
        }
      ],
      "name": "balanceOf",
      "outputs": [
        {
          "name": "balance",
          "type": "uint256"
        }
      ],
      "payable": false,
      "stateMutability": "view",
      "type": "function"
    },
    {
      "constant": true,
      "inputs": [],
      "name": "owner",
      "outputs": [
        {
          "name": "",
          "type": "address"
        }
      ],
      "payable": false,
      "stateMutability": "view",
      "type": "function"
    },
    {
      "constant": true,
      "inputs": [],
      "name": "symbol",
      "outputs": [
        {
          "name": "",
          "type": "string"
        }
      ],
      "payable": false,
      "stateMutability": "view",
      "type": "function"
    },
    {
      "constant": true,
      "inputs": [
        {
          "name": "",
          "type": "uint256"
        }
      ],
      "name": "addressLUT",
      "outputs": [
        {
          "name": "",
          "type": "address"
        }
      ],
      "payable": false,
      "stateMutability": "view",
      "type": "function"
    },
    {
      "constant": true,
      "inputs": [
        {
          "name": "",
          "type": "address"
        }
      ],
      "name": "frozenAccount",
      "outputs": [
        {
          "name": "",
          "type": "bool"
        }
      ],
      "payable": false,
      "stateMutability": "view",
      "type": "function"
    },
    {
      "constant": false,
      "inputs": [
        {
          "name": "_spender",
          "type": "address"
        },
        {
          "name": "_addedValue",
          "type": "uint256"
        }
      ],
      "name": "increaseApproval",
      "outputs": [
        {
          "name": "success",
          "type": "bool"
        }
      ],
      "payable": false,
      "stateMutability": "nonpayable",
      "type": "function"
    },
    {
      "inputs": [],
      "payable": false,
      "stateMutability": "nonpayable",
      "type": "constructor"
    },
    {
      "anonymous": false,
      "inputs": [
        {
          "indexed": true,
          "name": "_address",
          "type": "address"
        },
        {
          "indexed": false,
          "name": "_frozen",
          "type": "bool"
        }
      ],
      "name": "FundsFrozen",
      "type": "event"
    },
    {
      "anonymous": false,
      "inputs": [
        {
          "indexed": true,
          "name": "_address",
          "type": "address"
        }
      ],
      "name": "AccountFrozen",
      "type": "event"
    },
    {
      "anonymous": false,
      "inputs": [
        {
          "indexed": true,
          "name": "_address",
          "type": "address"
        },
        {
          "indexed": false,
          "name": "_isWhitelisted",
          "type": "bool"
        }
      ],
      "name": "WhiteListUpdated",
      "type": "event"
    },
    {
      "anonymous": false,
      "inputs": [
        {
          "indexed": true,
          "name": "owner",
          "type": "address"
        },
        {
          "indexed": true,
          "name": "spender",
          "type": "address"
        },
        {
          "indexed": false,
          "name": "value",
          "type": "uint256"
        }
      ],
      "name": "Approval",
      "type": "event"
    },
    {
      "anonymous": false,
      "inputs": [
        {
          "indexed": true,
          "name": "from",
          "type": "address"
        },
        {
          "indexed": true,
          "name": "to",
          "type": "address"
        },
        {
          "indexed": false,
          "name": "value",
          "type": "uint256"
        }
      ],
      "name": "Transfer",
      "type": "event"
    },
    {
      "constant": true,
      "inputs": [],
      "name": "getAccountList",
      "outputs": [
        {
          "name": "",
          "type": "address[]"
        }
      ],
      "payable": false,
      "stateMutability": "view",
      "type": "function"
    },
    {
      "constant": false,
      "inputs": [
        {
          "name": "target",
          "type": "address"
        },
        {
          "name": "isWhitelisted",
          "type": "bool"
        }
      ],
      "name": "setWhiteList",
      "outputs": [],
      "payable": false,
      "stateMutability": "nonpayable",
      "type": "function"
    },
    {
      "constant": false,
      "inputs": [
        {
          "name": "target",
          "type": "address"
        },
        {
          "name": "freeze",
          "type": "bool"
        }
      ],
      "name": "freezeAccount",
      "outputs": [],
      "payable": false,
      "stateMutability": "nonpayable",
      "type": "function"
    },
    {
      "constant": false,
      "inputs": [
        {
          "name": "_to",
          "type": "address"
        },
        {
          "name": "_value",
          "type": "uint256"
        }
      ],
      "name": "transfer",
      "outputs": [
        {
          "name": "",
          "type": "bool"
        }
      ],
      "payable": false,
      "stateMutability": "nonpayable",
      "type": "function"
    },
    {
      "constant": false,
      "inputs": [
        {
          "name": "_from",
          "type": "address"
        },
        {
          "name": "_to",
          "type": "address"
        },
        {
          "name": "_value",
          "type": "uint256"
        }
      ],
      "name": "transferFrom",
      "outputs": [
        {
          "name": "",
          "type": "bool"
        }
      ],
      "payable": false,
      "stateMutability": "nonpayable",
      "type": "function"
    },
    {
      "constant": false,
      "inputs": [
        {
          "name": "_spender",
          "type": "address"
        },
        {
          "name": "_value",
          "type": "uint256"
        }
      ],
      "name": "approve",
      "outputs": [
        {
          "name": "",
          "type": "bool"
        }
      ],
      "payable": false,
      "stateMutability": "nonpayable",
      "type": "function"
    },
    {
      "constant": true,
      "inputs": [
        {
          "name": "_owner",
          "type": "address"
        },
        {
          "name": "_spender",
          "type": "address"
        }
      ],
      "name": "allowance",
      "outputs": [
        {
          "name": "",
          "type": "uint256"
        }
      ],
      "payable": false,
      "stateMutability": "view",
      "type": "function"
    }
  ],
  "bytecode": "0x608060405234801561001057600080fd5b5060068054600160a060020a031916339081179091556a0422ca8b0a00a4250000006007819055600091825260016020818152604080852093909355308452600990529120805460ff19169091179055610f298061006f6000396000f3006080604052600436106101065763ffffffff7c010000000000000000000000000000000000000000000000000000000060003504166306fdde03811461010b578063095ea7b31461019557806318160ddd146101cd57806323b872dd146101f45780632843314e1461021e578063313ce56714610283578063372c12b1146102ae578063378dc3dc146102cf57806366188463146102e457806370a08231146103085780638d14e127146103295780638da5cb5b1461035157806395d89b4114610382578063a9059cbb14610397578063aca49018146103bb578063b414d4b6146103d3578063d73dd623146103f4578063dd62ed3e14610418578063e724529c1461043f575b600080fd5b34801561011757600080fd5b50610120610465565b6040805160208082528351818301528351919283929083019185019080838360005b8381101561015a578181015183820152602001610142565b50505050905090810190601f1680156101875780820380516001836020036101000a031916815260200191505b509250505060405180910390f35b3480156101a157600080fd5b506101b9600160a060020a036004351660243561049c565b604080519115158252519081900360200190f35b3480156101d957600080fd5b506101e26104b1565b60408051918252519081900360200190f35b34801561020057600080fd5b506101b9600160a060020a03600435811690602435166044356104b7565b34801561022a57600080fd5b50610233610645565b60408051602080825283518183015283519192839290830191858101910280838360005b8381101561026f578181015183820152602001610257565b505050509050019250505060405180910390f35b34801561028f57600080fd5b506102986106fb565b6040805160ff9092168252519081900360200190f35b3480156102ba57600080fd5b506101b9600160a060020a0360043516610700565b3480156102db57600080fd5b506101e2610715565b3480156102f057600080fd5b506101b9600160a060020a0360043516602435610724565b34801561031457600080fd5b506101e2600160a060020a0360043516610814565b34801561033557600080fd5b5061034f600160a060020a0360043516602435151561082f565b005b34801561035d57600080fd5b506103666108a6565b60408051600160a060020a039092168252519081900360200190f35b34801561038e57600080fd5b506101206108b5565b3480156103a357600080fd5b506101b9600160a060020a03600435166024356108ec565b3480156103c757600080fd5b50610366600435610a65565b3480156103df57600080fd5b506101b9600160a060020a0360043516610a8d565b34801561040057600080fd5b506101b9600160a060020a0360043516602435610aa2565b34801561042457600080fd5b506101e2600160a060020a0360043581169060243516610b3b565b34801561044b57600080fd5b5061034f600160a060020a03600435166024351515610b47565b60408051808201909152601081527f4f6365616e426f756e7479546f6b656e00000000000000000000000000000000602082015281565b60006104a88383610bbe565b90505b92915050565b60075481565b600160a060020a03831660009081526008602052604081205460ff161561051457604051600160a060020a038516907f4f2a367e694e71282f29ab5eaa04c4c0be45ac5bf2ca74fb67068b98bdc2887d90600090a250600061063e565b600160a060020a038316151561052957600080fd5b600a80546001810182556000919091527fc65a7bb8d6351c1cf70c95a316cc6a92839c986682d98bc35f958f4883f9d2a801805473ffffffffffffffffffffffffffffffffffffffff1916600160a060020a03851617905561058c848484610c55565b151561059757600080fd5b600160a060020a03831660009081526008602052604090205460ff161580156105d95750600160a060020a03831660009081526009602052604090205460ff16155b1561063a57600160a060020a038316600081815260086020908152604091829020805460ff19166001908117909155825190815291517f1d4e2025c66100dca6ec09dd6ca44b4571273e26e596d2003dfcc39afd6f98679281900390910190a25b5060015b9392505050565b6006546060908190600090600160a060020a0316331461066457600080fd5b600a54604080518281526020808402820101909152908015610690578160200160208202803883390190505b509150600090505b600a548110156106f557600a8054829081106106b057fe5b6000918252602090912001548251600160a060020a03909116908390839081106106d657fe5b600160a060020a03909216602092830290910190910152600101610698565b50919050565b601281565b60096020526000908152604090205460ff1681565b6a0422ca8b0a00a42500000081565b336000908152600260209081526040808320600160a060020a03861684529091528120548083111561077957336000908152600260209081526040808320600160a060020a03881684529091528120556107ae565b610789818463ffffffff610dce16565b336000908152600260209081526040808320600160a060020a03891684529091529020555b336000818152600260209081526040808320600160a060020a0389168085529083529281902054815190815290519293927f8c5be1e5ebec7d5bd14f71427d1e84f3dd0314c0f7b2291e5b200ac8c7c3b925929181900390910190a35060019392505050565b600160a060020a031660009081526001602052604090205490565b600654600160a060020a0316331461084657600080fd5b600160a060020a038216600081815260096020908152604091829020805460ff1916851515908117909155825190815291517fb1288e9f7bae3599e10819d5553febea48e11a6f8f585b32c8abad397dd2627e9281900390910190a25050565b600654600160a060020a031681565b60408051808201909152600481527f4f50425400000000000000000000000000000000000000000000000000000000602082015281565b3360009081526008602052604081205460ff16156109375760405133907f4f2a367e694e71282f29ab5eaa04c4c0be45ac5bf2ca74fb67068b98bdc2887d90600090a25060006104ab565b600160a060020a038316151561094c57600080fd5b600a80546001810182556000919091527fc65a7bb8d6351c1cf70c95a316cc6a92839c986682d98bc35f958f4883f9d2a801805473ffffffffffffffffffffffffffffffffffffffff1916600160a060020a0385161790556109ae8383610de0565b15156109b957600080fd5b600160a060020a03831660009081526008602052604090205460ff161580156109fb5750600160a060020a03831660009081526009602052604090205460ff16155b15610a5c57600160a060020a038316600081815260086020908152604091829020805460ff19166001908117909155825190815291517f1d4e2025c66100dca6ec09dd6ca44b4571273e26e596d2003dfcc39afd6f98679281900390910190a25b50600192915050565b600a805482908110610a7357fe5b600091825260209091200154600160a060020a0316905081565b60086020526000908152604090205460ff1681565b336000908152600260209081526040808320600160a060020a0386168452909152812054610ad6908363ffffffff610ec316565b336000818152600260209081526040808320600160a060020a0389168085529083529281902085905580519485525191937f8c5be1e5ebec7d5bd14f71427d1e84f3dd0314c0f7b2291e5b200ac8c7c3b925929081900390910190a350600192915050565b60006104a88383610ed2565b600654600160a060020a03163314610b5e57600080fd5b600160a060020a038216600081815260086020908152604091829020805460ff1916851515908117909155825190815291517f1d4e2025c66100dca6ec09dd6ca44b4571273e26e596d2003dfcc39afd6f98679281900390910190a25050565b6003805473ffffffffffffffffffffffffffffffffffffffff199081163390811790925560048054600160a060020a038616921682179055600583905560008281526002602090815260408083208484528252808320869055805186815290519294927f8c5be1e5ebec7d5bd14f71427d1e84f3dd0314c0f7b2291e5b200ac8c7c3b925929181900390910190a350600192915050565b6000600160a060020a0383161515610c6c57600080fd5b600160a060020a038416600090815260016020526040902054821115610c9157600080fd5b600160a060020a0384166000908152600260209081526040808320338452909152902054821115610cc157600080fd5b600160a060020a038416600090815260016020526040902054610cea908363ffffffff610dce16565b600160a060020a038086166000908152600160205260408082209390935590851681522054610d1f908363ffffffff610ec316565b600160a060020a038085166000908152600160209081526040808320949094559187168152600282528281203382529091522054610d63908363ffffffff610dce16565b600160a060020a03808616600081815260026020908152604080832033845282529182902094909455805186815290519287169391927fddf252ad1be2c89b69c2b068fc378daa952ba7f163c4a11628f55a4df523b3ef929181900390910190a35060019392505050565b600082821115610dda57fe5b50900390565b6000600160a060020a0383161515610df757600080fd5b33600090815260016020526040902054821115610e1357600080fd5b33600090815260016020526040902054610e33908363ffffffff610dce16565b3360009081526001602052604080822092909255600160a060020a03851681522054610e65908363ffffffff610ec316565b600160a060020a0384166000818152600160209081526040918290209390935580518581529051919233927fddf252ad1be2c89b69c2b068fc378daa952ba7f163c4a11628f55a4df523b3ef9281900390910190a350600192915050565b60008282018381101561063e57fe5b600160a060020a039182166000908152600260209081526040808320939094168252919091522054905600a165627a7a72305820fedd72184872b90aba1880f6693d06d04226efcfcec97fee3781919f0a1281900029",
  "source": "pragma solidity ^0.4.24;\n\nimport './zeppelin/StandardToken.sol';\n\ncontract Token is StandardToken {\n    address public owner;\n\n    string public constant name = 'OceanBountyToken';\n    string public constant symbol = 'OPBT';\n\n    // SUPPLY\n    uint8 public constant decimals = 18;\n    uint256 public constant initialSupply = 5000000 * 10**18;\n\n    // all balance\n    uint256 public totalSupply;\n\n    // mapping\n    mapping(address => bool) public frozenAccount;\n    mapping(address => bool) public whiteList;\n\n    // full list of receiver accounts\n    address[] public addressLUT;\n\n    // events\n    event FundsFrozen(address indexed _address, bool _frozen);\n    event AccountFrozen(address indexed _address);\n    event WhiteListUpdated(address indexed _address, bool _isWhitelisted);\n\n    // modifier\n    modifier onlyOwner() {\n        require(msg.sender == owner);\n        _;\n    }\n\n    // constructor function\n    constructor() public {\n        // set _owner\n        owner = msg.sender;\n        // total supply\n        totalSupply = initialSupply;\n        // owner of token contract has all tokens\n        balances[msg.sender] = initialSupply;\n        // add contract itself into whiteList\n        whiteList[address(this)] = true;\n    }\n\n    // returns full list of receiver addresses\n    function getAccountList() public view onlyOwner() returns (address[]) {\n        address[] memory v = new address[](addressLUT.length);\n        for (uint256 i = 0; i < addressLUT.length; i++) {\n            v[i] = addressLUT[i];\n        }\n        return v;\n    }\n\n    // add acount to whiteList - true means no-freeze\n    function setWhiteList(address target, bool isWhitelisted) public onlyOwner() {\n        whiteList[target] = isWhitelisted;\n        emit WhiteListUpdated(target, isWhitelisted);\n    }\n\n    // freeze accounts\n    function freezeAccount(address target, bool freeze) public onlyOwner() {\n        frozenAccount[target] = freeze;\n        emit FundsFrozen(target, freeze);\n    }\n\n    /**\n    * @dev Transfer token for a specified address when not paused\n    * @param _to The address to transfer to.\n    * @param _value The amount to be transferred.\n    */\n    function transfer(address _to, uint256 _value) public returns (bool) {\n        // source account shall not be frozen\n        if (frozenAccount[msg.sender]) {\n            emit AccountFrozen(msg.sender);\n            return false;\n        }\n        require(_to != address(0));\n        // record the receiver address into list\n        addressLUT.push(_to);\n        // transfer fund first if sender is not frozen\n        require(super.transfer(_to, _value));\n        // automatically freeze receiver that is not whitelisted\n        if (frozenAccount[_to] == false && whiteList[_to] == false) {\n            frozenAccount[_to] = true;\n            emit FundsFrozen(_to, true);\n        }\n        return true;\n    }\n\n    /**\n    * @dev Transfer tokens from one address to another when not paused\n    * @param _from address The address which you want to send tokens from\n    * @param _to address The address which you want to transfer to\n    * @param _value uint256 the amount of tokens to be transferred\n    */\n    function transferFrom(address _from, address _to, uint256 _value) public returns (bool) {\n        // source account shall not be freezed\n        if (frozenAccount[_from]) {\n            emit AccountFrozen(_from);\n            return false;\n        }\n        // des address should be valid\n        require(_to != address(0));\n        // add receiver to lookup table\n        addressLUT.push(_to);\n        // transfer fund\n        require(super.transferFrom(_from, _to, _value));\n        // automatically freeze account\n        if (frozenAccount[_to] == false && whiteList[_to] == false) {\n            frozenAccount[_to] = true;\n            emit FundsFrozen(_to, true);\n        }\n        return true;\n    }\n\n    /**\n    * @dev Aprove the passed address to spend the specified amount of tokens on behalf of msg.sender when not paused.\n    * @param _spender The address which will spend the funds.\n    * @param _value The amount of tokens to be spent.\n    */\n    function approve(address _spender, uint256 _value) public returns (bool) {\n        return super.approve(_spender, _value);\n    }\n\n    function allowance(address _owner, address _spender) public constant returns (uint256) {// solium-disable-line no-constant\n        return super.allowance(_owner, _spender);\n    }\n\n}\n",
  "sourcePath": "/Users/manan/projects/ocean/erc20_token/contracts/Token.sol",
  "compiler": {
    "name": "solc",
    "version": "0.4.24+commit.e67f0147.Emscripten.clang"
  },
  "schemaVersion": "2.0.1",
  "updatedAt": "2018-09-03T11:56:45.804Z"
}