{
  "contractName": "UserComments",
  "abi": [
    {
      "constant": true,
      "inputs": [
        {
          "name": "",
          "type": "uint256"
        }
      ],
      "name": "comments",
      "outputs": [
        {
          "name": "comment",
          "type": "string"
        },
        {
          "name": "from",
          "type": "address"
        },
        {
          "name": "to",
          "type": "address"
        },
        {
          "name": "aboutBounty",
          "type": "bool"
        },
        {
          "name": "bountyId",
          "type": "uint256"
        },
        {
          "name": "time",
          "type": "uint256"
        }
      ],
      "payable": false,
      "stateMutability": "view",
      "type": "function"
    },
    {
      "anonymous": false,
      "inputs": [
        {
          "indexed": false,
          "name": "_comment",
          "type": "string"
        },
        {
          "indexed": false,
          "name": "_from",
          "type": "address"
        },
        {
          "indexed": false,
          "name": "_to",
          "type": "address"
        },
        {
          "indexed": false,
          "name": "_time",
          "type": "uint256"
        }
      ],
      "name": "CommentAdded",
      "type": "event"
    },
    {
      "constant": false,
      "inputs": [
        {
          "name": "_comment",
          "type": "string"
        },
        {
          "name": "_to",
          "type": "address"
        },
        {
          "name": "_aboutBounty",
          "type": "bool"
        },
        {
          "name": "_bountyId",
          "type": "uint256"
        }
      ],
      "name": "addComment",
      "outputs": [],
      "payable": false,
      "stateMutability": "nonpayable",
      "type": "function"
    },
    {
      "constant": true,
      "inputs": [],
      "name": "numComments",
      "outputs": [
        {
          "name": "",
          "type": "uint256"
        }
      ],
      "payable": false,
      "stateMutability": "view",
      "type": "function"
    },
    {
      "constant": true,
      "inputs": [
        {
          "name": "_commentId",
          "type": "uint256"
        }
      ],
      "name": "getComment",
      "outputs": [
        {
          "name": "",
          "type": "string"
        },
        {
          "name": "",
          "type": "address"
        },
        {
          "name": "",
          "type": "address"
        },
        {
          "name": "",
          "type": "bool"
        },
        {
          "name": "",
          "type": "uint256"
        },
        {
          "name": "",
          "type": "uint256"
        }
      ],
      "payable": false,
      "stateMutability": "view",
      "type": "function"
    }
  ],
  "bytecode": "0x608060405234801561001057600080fd5b50610b5f806100206000396000f300608060405260043610610062576000357c0100000000000000000000000000000000000000000000000000000000900463ffffffff1680630800e300146100675780638ebb4c151461018c578063b85a6a20146102b1578063f03b7c70146102dc575b600080fd5b34801561007357600080fd5b506100926004803603810190808035906020019092919050505061037b565b60405180806020018773ffffffffffffffffffffffffffffffffffffffff1673ffffffffffffffffffffffffffffffffffffffff1681526020018673ffffffffffffffffffffffffffffffffffffffff1673ffffffffffffffffffffffffffffffffffffffff16815260200185151515158152602001848152602001838152602001828103825288818151815260200191508051906020019080838360005b8381101561014c578082015181840152602081019050610131565b50505050905090810190601f1680156101795780820380516001836020036101000a031916815260200191505b5097505050505050505060405180910390f35b34801561019857600080fd5b506101b76004803603810190808035906020019092919050505061055d565b60405180806020018773ffffffffffffffffffffffffffffffffffffffff1673ffffffffffffffffffffffffffffffffffffffff1681526020018673ffffffffffffffffffffffffffffffffffffffff1673ffffffffffffffffffffffffffffffffffffffff16815260200185151515158152602001848152602001838152602001828103825288818151815260200191508051906020019080838360005b83811015610271578082015181840152602081019050610256565b50505050905090810190601f16801561029e5780820380516001836020036101000a031916815260200191505b5097505050505050505060405180910390f35b3480156102bd57600080fd5b506102c661068d565b6040518082815260200191505060405180910390f35b3480156102e857600080fd5b50610379600480360381019080803590602001908201803590602001908080601f0160208091040260200160405190810160405280939291908181526020018383808284378201915050505050509192919290803573ffffffffffffffffffffffffffffffffffffffff16906020019092919080351515906020019092919080359060200190929190505050610699565b005b60606000806000806000866000805490508110151561039957600080fd5b6000888154811015156103a857fe5b90600052602060002090600502016000016000898154811015156103c857fe5b906000526020600020906005020160010160009054906101000a900473ffffffffffffffffffffffffffffffffffffffff1660008a81548110151561040957fe5b906000526020600020906005020160020160009054906101000a900473ffffffffffffffffffffffffffffffffffffffff1660008b81548110151561044a57fe5b906000526020600020906005020160020160149054906101000a900460ff1660008c81548110151561047857fe5b90600052602060002090600502016003015460008d81548110151561049957fe5b906000526020600020906005020160040154858054600181600116156101000203166002900480601f0160208091040260200160405190810160405280929190818152602001828054600181600116156101000203166002900480156105405780601f1061051557610100808354040283529160200191610540565b820191906000526020600020905b81548152906001019060200180831161052357829003601f168201915b505050505095509650965096509650965096505091939550919395565b60008181548110151561056c57fe5b9060005260206000209060050201600091509050806000018054600181600116156101000203166002900480601f0160208091040260200160405190810160405280929190818152602001828054600181600116156101000203166002900480156106185780601f106105ed57610100808354040283529160200191610618565b820191906000526020600020905b8154815290600101906020018083116105fb57829003601f168201915b5050505050908060010160009054906101000a900473ffffffffffffffffffffffffffffffffffffffff16908060020160009054906101000a900473ffffffffffffffffffffffffffffffffffffffff16908060020160149054906101000a900460ff16908060030154908060040154905086565b60008080549050905090565b811561081057600060c0604051908101604052808681526020013373ffffffffffffffffffffffffffffffffffffffff168152602001600073ffffffffffffffffffffffffffffffffffffffff168152602001841515815260200183815260200142815250908060018154018082558091505090600182039060005260206000209060050201600090919290919091506000820151816000019080519060200190610745929190610a8e565b5060208201518160010160006101000a81548173ffffffffffffffffffffffffffffffffffffffff021916908373ffffffffffffffffffffffffffffffffffffffff16021790555060408201518160020160006101000a81548173ffffffffffffffffffffffffffffffffffffffff021916908373ffffffffffffffffffffffffffffffffffffffff16021790555060608201518160020160146101000a81548160ff0219169083151502179055506080820151816003015560a0820151816004015550505061097c565b600060c0604051908101604052808681526020013373ffffffffffffffffffffffffffffffffffffffff1681526020018573ffffffffffffffffffffffffffffffffffffffff1681526020018415158152602001838152602001428152509080600181540180825580915050906001820390600052602060002090600502016000909192909190915060008201518160000190805190602001906108b5929190610a8e565b5060208201518160010160006101000a81548173ffffffffffffffffffffffffffffffffffffffff021916908373ffffffffffffffffffffffffffffffffffffffff16021790555060408201518160020160006101000a81548173ffffffffffffffffffffffffffffffffffffffff021916908373ffffffffffffffffffffffffffffffffffffffff16021790555060608201518160020160146101000a81548160ff0219169083151502179055506080820151816003015560a082015181600401555050505b7fd74a4d76d61dbd520af23f64e60f13dec33299bae87e087853906a10a63cde818433854260405180806020018573ffffffffffffffffffffffffffffffffffffffff1673ffffffffffffffffffffffffffffffffffffffff1681526020018473ffffffffffffffffffffffffffffffffffffffff1673ffffffffffffffffffffffffffffffffffffffff168152602001838152602001828103825286818151815260200191508051906020019080838360005b83811015610a4b578082015181840152602081019050610a30565b50505050905090810190601f168015610a785780820380516001836020036101000a031916815260200191505b509550505050505060405180910390a150505050565b828054600181600116156101000203166002900490600052602060002090601f016020900481019282601f10610acf57805160ff1916838001178555610afd565b82800160010185558215610afd579182015b82811115610afc578251825591602001919060010190610ae1565b5b509050610b0a9190610b0e565b5090565b610b3091905b80821115610b2c576000816000905550600101610b14565b5090565b905600a165627a7a72305820752b709a6b123a6b4f200f098b982c4993143eb961963baf032ebe47076ca8c80029",
  "source": "pragma solidity ^0.4.24;\n\n\n/// @title User Comments\n/// @author Mark Beylin <mark.beylin@consensys.net>\n\ncontract UserComments {\n    event CommentAdded(string _comment, address _from, address _to, uint _time);\n\n    struct Comment{\n      string comment;\n      address from;\n      address to;\n      bool aboutBounty;\n      uint bountyId;\n      uint time;\n    }\n\n    Comment[] public comments;\n\n    modifier isValidCommentIndex(uint i){\n      require (i < comments.length);\n      _;\n    }\n\n    function addComment(string _comment, address _to, bool _aboutBounty, uint _bountyId)\n    public\n    {\n      if (_aboutBounty){\n        comments.push(Comment(_comment, msg.sender, address(0), _aboutBounty, _bountyId, block.timestamp));\n      } else {\n        comments.push(Comment(_comment, msg.sender, _to, _aboutBounty, _bountyId, block.timestamp));\n      }\n      CommentAdded(_comment, msg.sender, _to, block.timestamp);\n    }\n\n    function numComments()\n    public\n    constant\n    returns (uint){\n      return comments.length;\n    }\n\n    function getComment(uint _commentId)\n    isValidCommentIndex(_commentId)\n    public\n    constant\n    returns (string, address, address, bool, uint, uint){\n      return (comments[_commentId].comment,\n              comments[_commentId].from,\n              comments[_commentId].to,\n              comments[_commentId].aboutBounty,\n              comments[_commentId].bountyId,\n              comments[_commentId].time);\n    }\n}\n",
  "sourcePath": "/Users/fancy/Documents/Ocean Protocol/research/9-token_distribution/erc20_token/contracts/Comments.sol",
  "compiler": {
    "name": "solc",
    "version": "0.4.24+commit.e67f0147.Emscripten.clang"
  },
  "schemaVersion": "2.0.0",
  "updatedAt": "2018-07-30T22:40:40.455Z"
}